:020000040800F2
:1000000030040020C5060008990400089B0400087D
:100010009F040008A3040008A704000800000000D3
:10002000000000000000000000000000AB04000819
:10003000AD04000800000000AF040008B10400088F
:10004000DF060008DF060008DF060008DF060008FC
:10005000DF060008DF060008DF060008DF060008EC
:10006000DF060008DF060008DF060008DF060008DC
:10007000DF060008DF060008DF060008DF060008CC
:10008000DF060008DF060008DF060008DF060008BC
:10009000DF060008DF060008DF060008DF060008AC
:1000A000DF060008DF060008DF060008DF0600089C
:1000B000DF0600081B040008DF060008DF06000852
:1000C000DF060008DF060008DF060008DF0600087C
:1000D000DF060008FD030008DF060008DF06000851
:1000E000DF060008DF060008DF060008DF0600085C
:1000F000DF060008DF060008DF060008DF0600084C
:10010000DF060008DF060008DF060008DF0600083B
:10011000DF060008DF060008DF060008DF0600082B
:10012000DF060008DF060008DF060008DF0600081B
:10013000DF060008DF060008DF060008DF0600080B
:10014000DF060008DF060008DF060008DF060008FB
:10015000DF060008DF060008DF060008DF060008EB
:10016000DF060008DF060008DF060008DF060008DB
:10017000DF060008DF060008DF060008DF060008CB
:10018000DF060008DF060008DFF80CD002F076FB7F
:1001900000480047D90300083004002010B54FF490
:1001A0008061A54800F014FC322002F0A3FA4FF45D
:1001B0008061A14800F00AFCC82002F09BFA10BD43
:1001C00010B54FF400619C4800F002FC10BD10B562
:1001D0004FF40061984800F0F9FB10BD00BF97494B
:1001E000098801F002010029F9D09449091D08800D
:1001F00000BF9249098801F001010029F9D08F4917
:10020000091D0988704700BF8C48008800F0020073
:100210000028F9D0FF208949091D088000BF8748C0
:10022000008800F001000028F9D08448001D0088F3
:10023000C0B2704710B50446FFF7C2FF0020FFF7B9
:10024000CDFF0120FFF7CAFF0020FFF7C7FFFFF730
:10025000DAFF2070FFF7D7FF6070FFF7D4FFA070C0
:10026000FFF7D1FFE070FFF7B2FF10BD10B5FFF749
:10027000A7FF0020FFF7B2FF0120FFF7AFFF042028
:10028000FFF7ACFF0B20FFF7A9FF1620FFF7A6FF33
:100290002120FFF7A3FF2C20FFF7A0FFFFF797FF18
:1002A00010BD00B587B00121022000F0B1FD022091
:1002B0008DF8180000208DF81A004FF4604005906A
:1002C00002208DF81B0003208DF8190005A95A485B
:1002D00000F000FB01208DF8180000208DF81A00B6
:1002E0004FF44060059002208DF81B0003208DF82C
:1002F000190005A9504800F0EDFA4FF480614E480E
:1003000000F064FB4FF400614B4800F05FFB0522F6
:100310000D21494800F069FB05220E21464800F0F6
:1003200064FB05220F21444800F05FFB0121880394
:1003300000F0B7FD0020ADF800004FF48270ADF87A
:1003400002000020ADF80400ADF80600ADF808008A
:100350004FF40070ADF80A003820ADF80C00002012
:10036000ADF80E000720ADF8100069463348083894
:1003700000F0EEFE01213148083800F0E3FF07B03D
:1003800000BD88B02EA002F08BFAFFF78AFFFFF7BE
:1003900005FF2EA002F084FA1DE04FF4FA7002F07F
:1003A000A9F9FFF763FF05A8FFF744FF9DF81A00BE
:1003B0009DF819109DF818209DF81730CDE90032EE
:1003C000CDE902109DF816309DF815209DF8141007
:1003D00021A002F065FAE0E74FF4A06000F084F994
:1003E00002F0A8F9A82002F023F94FF4967002F069
:1003F00081F91FA002F054FAFFF7C3FF10B540F2D5
:1004000025511F4802F0CAF830B11D4802F004F827
:10041000C4B2204602F0EBF910BD10B50121194815
:1004200001F0EFFD012806D117A002F039FA0121F1
:10043000144801F0F7FD10BD0004024008380040E8
:10044000D7BCB1B8B2E2CAD42E2E2E00BFAACABC05
:10045000B2E2CAD42E2E2E0025642E25642E2564E9
:100460002E25642E25642E25642E256400000000B0
:100470007374617274207465737420320A00000012
:100480000010014000040040B6A8CAB1D6D0B6CFD3
:10049000A3A1200D0A000000704700BFFEE700BFC7
:1004A000FEE700BFFEE700BFFEE7704770477047FA
:1004B000704700000CB5002001900090764800685D
:1004C00040F480307449086000BF7348006800F44D
:1004D000003000900198401C0190009818B90198D4
:1004E000B0F5A04FF1D16C48006800F4003010B1B5
:1004F0000120009001E0002000900098012846D1E2
:1005000065484030006840F08050634940310860E1
:100510006248006840F44040604908605E48083026
:1005200000685D49083108600846006840F40040F2
:1005300008600846006840F4A05008605848091F49
:100540000860081F006840F08070091F086000BF45
:100550005148006800F000700028F9D040F20570A2
:10056000504908604C480830006820F003004A49B0
:10057000083108600846006840F00200086000BFCB
:1005800045480830006800F00C000828F8D10CBD80
:1005900010B54548006840F47000434908603E4883
:1005A000006840F001003C49086000203A490831E9
:1005B0000860394800683D490840374908603C48B0
:1005C000091D0860081F006820F48020091F0860CA
:1005D000002031490C310860FFF76CFF4FF00060DC
:1005E00031498039086010BD70B500200022022317
:1005F00000240221284D08352D6805F00C0020B19B
:10060000042806D0082834D107E02A4D2A4E356048
:1006100033E02A4D284E35602FE01F4D2D1D2D68EB
:10062000C5F380541C4D2D1D2D6805F03F0154B1BC
:10063000224DB5FBF1F5184E361D3668C6F3881607
:1006400005FB06F209E01B4DB5FBF1F5124E361D18
:100650003668C6F3881605FB06F20F4D2D1D2D6872
:10066000C5F301456D1C6B00B2FBF3F5124E35600E
:1006700003E0104D104E356000BF00BF064D083539
:100680002D68C5F303150E4E705D0B4D2D68C540EA
:10069000094E356070BD0000003802400070004017
:1006A00008544007003C024088ED00E0FFFFF6FEE2
:1006B000103000240024F4000000002000127A0012
:1006C000040000200648804706480047FEE7FEE792
:1006D000FEE7FEE7FEE7FEE7FEE7FEE7FEE7FEE7F2
:1006E000910500088901000832490143324A11602E
:1006F000704770B5002100230F22C4781CB32E4C24
:10070000246804F4E064C4F5E064C4F30721C1F193
:100710000404E3B20A4144789C40E1B28478144076
:1007200021430C07210E254C05786155047804F00F
:100730001F050124AC4005786D11AD0005F1E025E1
:10074000C5F8004109E0047804F01F050124AC401D
:100750001B4D0678761145F8264070BD194A0A40AF
:100760000243154B1B1F1A60704739B1124A121D04
:1007700012680243104B1B1D1A6006E00E4A121D40
:10078000126882430C4B1B1D1A607047042808D165
:100790004FF0E021096941F004014FF0E0221161BE
:1007A00007E04FF0E021096921F004014FF0E02259
:1007B000116170470000FA050CED00E000E400E074
:1007C00080E100E080FFFF1F10B504469848844296
:1007D00008D10121084600F086FB0021012000F02D
:1007E00082FB76E09348844208D10121022000F088
:1007F0007AFB0021022000F076FB6AE08E488442FA
:1008000008D10121042000F06EFB0021042000F03B
:100810006AFB5EE08948844208D10121082000F08B
:1008200062FB0021082000F05EFB52E08448844215
:1008300008D10121102000F056FB0021102000F00B
:1008400052FB46E07F48844208D10121202000F07D
:100850004AFB0021202000F046FB3AE07A4884421F
:1008600008D10121402000F03EFB0021402000F093
:100870003AFB2EE07548844208D10121802000F027
:1008800032FB0021802000F02EFB22E070488442E1
:1008900008D10121801500F026FB0021A01500F0F1
:1008A00022FB16E06B48844208D10121401500F07C
:1008B0001AFB0021601500F016FB0AE0664884422E
:1008C00007D10121001500F00EFB0021201500F0DA
:1008D0000AFB10BDF0B50A4600210023002400BF2A
:1008E0003DE0012505FA01F3156805EA03049C4281
:1008F00034D105684F000326BE40B5430560157925
:100900004E00B5400668354305601579012D02D0CB
:100910001579022D16D185684F000326BE40B543D8
:10092000856055794E00B5408668354385604568D9
:1009300001268E40B5434560456896798E40B6B233
:1009400035434560C5684F000326BE40B543C560CA
:10095000D5794E00B540C6683543C560491C10299D
:10096000BFD3F0BD4FF6FF710160002101714171ED
:100970008171C171704708B54FF480320092009ABE
:100980000A430092009AC261C161009AC261C269C1
:100990000092C269009208BD0246002013690B4014
:1009A0000BB1012000E0002070470146086980B2C9
:1009B00070470246002053690B400BB1012000E054
:1009C000002070470146486980B270470183704734
:1009D000418370470AB1018300E041837047416160
:1009E000704742694A4042617047F0B500230024D5
:1009F0004D07ED0E02FA05F3CE1000F1200555F873
:100A000026504E07F70E0F26BE40B543CF1000F11B
:100A1000200646F82750CE1000F1200555F8265044
:100A200045EA0304CE1000F1200545F82640F0BD4C
:100A3000000002400004024000080240000C024096
:100A4000001002400014024000180240001C024046
:100A5000002002400024024000280240F9480068BB
:100A600040F00100F74908600020F64908310860AD
:100A7000F4480068F4490840F2490860F348091D49
:100A80000860F348EF4984310860F0481038091DC8
:100A90000860EC48006820F48020EA4908600020E3
:100AA000E8490C310860E7498C3108607047002143
:100AB000E44A921C117011460870704710B5014647
:100AC0000022002300204A11012A02D1DD4C2368B4
:100AD00008E0022A03D1DB4C7034236802E0D94CD1
:100AE0007434236801F01F02012494401C400CB1AF
:100AF000012000E0002010BD38B500200090002447
:100B0000002500BF3120FFF7D9FF05460098401CA3
:100B100000900098B0F5A04F01D0002DF2D0312008
:100B2000FFF7CCFF08B1012400E00024204638BDC7
:100B300001460020C34A106820F0F80040EAC100D6
:100B400010607047C349086070470021BD4A703289
:100B500011701170012802D004280AD104E001218B
:100B6000B84A7032117005E00521B64A7032117032
:100B700000E000BF00BF7047B7490860704770B51C
:100B8000049C41EA82150126C6EB530645EA064558
:100B9000054345EA0465AB4E361D356070BDAD4971
:100BA00008667047820142EA0172A64B84331A60DC
:100BB0007047A8498866704710B5830143EA01630E
:100BC00043EA02739F4C8834236010BDA149086733
:100BD0007047A049C864704702460020994B08330B
:100BE000186820F0EC6042EA01031843954B083383
:100BF0001860704702460020924B0833186820F0B6
:100C0000784042EA010318438E4B0833186070475E
:100C1000014600208B4A0832106820F00300084388
:100C20001060704787480830006800F00C0070477B
:100C300001460020834A0832106820F0F000084383
:100C400010607047014600207E4A0832106820F488
:100C5000E05008431060704701460020794A08328E
:100C6000106820F4604040EAC10010607047F0B5A1
:100C7000002100220024022500260223714F08379C
:100C80003F6807F00C0121B1042905D0082937D1AC
:100C900005E0724F076036E0714F076033E0694F3F
:100CA0003F1D3F68C7F38056664F3F1D3F6807F002
:100CB0003F036EB16A4FB7FBF3F7DFF888C10CF161
:100CC000040CDCF800C0CCF3881C07FB0CF40CE02F
:100CD000624FB7FBF3F7DFF86CC10CF1040CDCF8E2
:100CE00000C0CCF3881C07FB0CF4564F3F1D3F6837
:100CF000C7F301477F1C7D00B4FBF5F7076002E0F6
:100D0000564F076000BF00BF4E4F08373F6807F0DF
:100D1000F0010909534F7A5C0768D7404760494F93
:100D200008373F6807F4E051890A4E4F7A5C4768FC
:100D3000D7408760434F08373F6807F46041490B4D
:100D4000484F7A5C4768D740C760F0BD002100F487
:100D50004072B2F5407F0AD13A4A0832116821F454
:100D6000F811414A02401143364A08321160354AAF
:100D700070321268C0F30B031A43324B70331A609F
:100D80007047354944390860704733494039086035
:100D9000704736490860704701460020294A8C3266
:100DA000106820F01F004A1E1043264A8C32106043
:100DB000704701460020234A8C32106820F4F85016
:100DC0004A1E40EA02201F4A8C32106070470146DA
:100DD00000201C4A8C32106820F440100843106038
:100DE000704701460020174A8C32106820F44000FA
:100DF00008431060704701460020124A8C32106888
:100E000020F440300843106070471949086070476B
:100E100039B10C4A3032126802430A4B30331A603F
:100E200006E0084A303212688243064B30331A60BB
:100E30007047F9B1034A343212680243014B34332C
:100E40001A601CE000380240FFFFF6EA1030002470
:100E50000030002000004742800E47420024F4008A
:100E600000127A0014000020FFFCFF0F5C014742D3
:100E7000E01147428F4A126882438E4B1A607047D6
:100E800039B18C4A121D126802438A4B1B1D1A602D
:100E900006E0884A121D12688243864B1B1D1A60A9
:100EA000704739B1834A0C3212680243814B0C33CC
:100EB0001A6006E07F4A0C32126882437D4B0C3385
:100EC0001A60704739B17B4A103212680243794B7D
:100ED00010331A6006E0774A103212688243754B6D
:100EE00010331A60704739B1724A243A12680243CB
:100EF000704B243B1A6006E06E4A243A1268824323
:100F00006C4B243B1A60704739B16A4A203A126828
:100F10000243684B203B1A6006E0664A203A12689A
:100F20008243644B203B1A60704739B1614A1C3AD6
:100F3000126802435F4B1C3B1A6006E05D4A1C3A94
:100F4000126882435B4B1C3B1A60704739B1594AA7
:100F5000143A12680243574B143B1A6006E0554A94
:100F6000143A12688243534B143B1A60704739B1EC
:100F7000504A103A126802434E4B103B1A6006E08A
:100F80004C4A103A126882434A4B103B1A60704731
:100F900039B1484A1C3212680243464B1C331A606E
:100FA00006E0444A1C3212688243424B1C331A60EA
:100FB000704739B13F4A2032126802433D4B20331B
:100FC0001A6006E03B4A203212688243394B2033D4
:100FD0001A60704739B1374A243212680243354BE0
:100FE00024331A6006E0334A243212688243314BBC
:100FF00024331A60704739B12E4A2C3212680243EA
:101000002C4B2C331A6006E02A4A2C321268824399
:10101000284B2C331A60704739B1264A3032126897
:101020000243244B30331A6006E0224A3032126801
:101030008243204B30331A607047012808D11D4984
:101040003C31096841F008011A4A3C32116007E05E
:1010500018493C31096821F00801164A3C321160F8
:10106000704739B1134A273A12780243114B273B94
:101070001A7006E00F4A273A127882430D4B273B3D
:101080001A7070470B484030006840F08070094982
:1010900040310860704701460020064A283A12682D
:1010A0000A400AB1012000E00020704701492639BA
:1010B000087070473438024010B50446FB4884423B
:1010C00008D101218014FFF752FF0021A014FFF77F
:1010D0004EFF3CE0F648844208D101210014FFF79E
:1010E00035FF00212014FFF731FF30E0F148844242
:1010F00008D10121C013FFF729FF0021E013FFF7FA
:1011000025FF24E0EC48844208D101214014FFF778
:101110002EFF00216014FFF72AFF18E0E748844201
:1011200009D101210805FFF722FF00214FF48010AB
:10113000FFF71DFF0BE0E248844208D1012148057A
:10114000FFF715FF00214FF40010FFF710FF10BD4F
:1011500010B50022028802F441520B884C882343C8
:101160008C882343CC8823430C8923434C89234315
:101170008C892343CC8923431A430280838B4FF20B
:10118000FF74234083830B8A038210BD2DE9F04F47
:101190000025022300244FF0010900220026002729
:1011A00094469046B0F81CA04FF2400B0AEA0B0A96
:1011B000A0F81CA04FF0020AA0F820A0858BD1F85F
:1011C00008A0BAF1020F01D100BF82E0B1F804A07B
:1011D000BAF1000F02D14FF0010901E04FF002090E
:1011E000DFF8E0A2DAF800A00AF4000ABAF1000F72
:1011F00009D0DFF8D0A2DAF800A02AF4000ADFF85C
:10120000C4B2CBF800A0DFF8BCA20AF17C0ADAF87D
:1012100000A0CAF3881CDFF8ACA20AF17C0ADAF855
:1012200000A0CAF30278DFF89CA2AAF1040ADAF857
:1012300000A00AF03F07DFF88CA2AAF1040ADAF84E
:1012400000A00AF4800ABAF5800F08D1DFF878A26E
:10125000BAFBF7FA0AFB0CFABAFBF8F607E0DFF87C
:101260006CA2BAFBF7FA0AFB0CFABAFBF8F6B1F873
:1012700006A0BAF5007F0ED14FEA162A0AEB8A0AB9
:101280004FEA4A0AD1F808B0BAFBFBFA0AF1050A9C
:101290001FFA8AF20FE04FEA491AB6FBFAFA0AEB94
:1012A0008A0A4FEA4A0AD1F808B0BAFBFBFA0AF1F7
:1012B000050A1FFA8AF24FF00A0AB2FBFAF202F0AC
:1012C0000104A2EB040ACAF34F034FF6FF7A0AEABD
:1012D0000424022B01DBFF2B01DD02230024B1F8E3
:1012E00006A04AEA040A4AEA030AA0F820A0B1F8D4
:1012F00004A0B1F80CB04AEA0B0AB1F802B04AEA0D
:101300000B0AB1F800B04AEA0B0A4AF4006A4AEA4A
:1013100005058583BDE8F08F002101804180818033
:10132000C180018141818181C18107210182704792
:101330000021018041808180C180022181600021E3
:101340008181704721B1028842F04002028004E0AE
:1013500002884FF6BF731A400280704721B1828B1A
:1013600042F48062828304E0828B4FF6FF331A409E
:101370008283704702884FF2FF731A40028002880E
:101380000A4302807047B1F5804F04D1028842F4CD
:101390008042028004E002884BF6FF731A4002800C
:1013A00070474FF6FF62914204D0028842F4807287
:1013B000028004E002884FF6FF631A400280704703
:1013C00021B1828842F00402828004E082884FF6D4
:1013D000FB731A408280704721B1828842F010026C
:1013E000828004E082884FF6EF731A408280704753
:1013F00030B500220023848B4FF240052C408483BB
:1014000002240484828B0C88B4F5007F01D00C8800
:1014100014B94FF4807308E00C88B4F5407F03D012
:101420000C88B4F5807F00D100238C888D892C43F3
:101430004D882C431C4344F400642243828330BD16
:101440000146888970478181704721B1028842F442
:101450000052028004E002884DF6FF731A400280B9
:101460007047018841F48051018070470246002096
:10147000012901D0108B00E0908A70470146088A4C
:1014800070471AB183880B43838002E083888B43C3
:101490008380704730B5002400230C110125A5403E
:1014A000ABB2AAB185881D43858014E000300140AD
:1014B00000380040003C0040003401400050014032
:1014C000005401400838024000127A000024F40061
:1014D00085889D43858030BD0246002013890B40DE
:1014E0000BB1012000E000207047CA430281704721
:1014F000F0B50246002000240023002501F00F076C
:101500000126BE40B4B20B1101269E40B3B29688AC
:1015100006EA03051689264016B10DB1012000E048
:101520000020F0BD10B5002201F00F040123A340FC
:101530009AB2D343038110BD10B50446FE488442DD
:1015400008D101210846FFF712FD00210120FFF715
:101550000EFD9DE0B4F1804F08D101210846FFF750
:10156000F5FC00210120FFF7F1FC91E0F3488442F3
:1015700008D101210220FFF7E9FC00210220FFF73A
:10158000E5FC85E0EE48844208D101210420FFF704
:10159000DDFC00210420FFF7D9FC79E0E948844212
:1015A00008D101210820FFF7D1FC00210820FFF716
:1015B000CDFC6DE0E448844208D101211020FFF702
:1015C000C5FC00211020FFF7C1FC61E0DF48844228
:1015D00008D101212020FFF7B9FC00212020FFF7CE
:1015E000B5FC55E0DA48844208D101210220FFF71A
:1015F000BEFC00210220FFF7BAFC49E0D548844236
:1016000009D101210804FFF7B2FC00214FF480301A
:10161000FFF7ADFC3CE0D048844209D101214804E9
:10162000FFF7A5FC00214FF40030FFF7A0FC2FE0EE
:10163000CA48844209D101218804FFF798FC00219F
:101640004FF48020FFF793FC22E0C548844208D184
:1016500001214020FFF77AFC00214020FFF776FCB3
:1016600016E0C048844208D101218020FFF76EFCBB
:1016700000218020FFF76AFC0AE0BB48844207D1C2
:1016800001218015FFF762FC0021A015FFF75EFC29
:1016900010BD00220288A84B98420ED0AC4B984255
:1016A0000BD0B0F1804F08D0A44B984205D0A44B8A
:1016B000984202D0A34B984204D14FF68F731A4040
:1016C0004B881A43A04B984207D0A04B984204D0B5
:1016D0004FF6FF431A400B891A4302804B68C362DE
:1016E0000B880385944B984202D0994B984201D1C4
:1016F0008B7A03860123838270474FF0FF3141606C
:1017000000210180018141808172704701858282C0
:1017100070470A46002101884FF68F731940114324
:101720000180704741627047C16270470146486A54
:1017300070470146088D704721B1028842F00202CD
:10174000028004E002884FF6FD731A400280704761
:1017500021B1028842F00402028004E002884FF6C0
:10176000FB731A400280704721B1028842F0800268
:10177000028004E002884FF67F731A4002807047AF
:1017800002884FF6F7731A40028002880A430280EB
:10179000704702884FF6FF431A40028002880A43CE
:1017A0000280704721B1028842F00102028004E009
:1017B00002884FF6FE731A400280704770B500240D
:1017C00000220023058C4FF6FE7635400584028CFE
:1017D0008388048B4FF68F752C40B51E2C400D88E6
:1017E0002C43751E2A408D892A434D882A43524D29
:1017F000A84202D0564DA84213D14FF6F7752A40A1
:10180000CD892A434FF6FB752A408D882A434FF62F
:10181000FF652B404FF6FF552B400D8A2B434D8A19
:101820002B43838004838D684563028470BD70B54B
:10183000002400220023058C4FF6EF763540058406
:10184000028C8388048B48F6FF752C404FF6FF45C9
:101850002C400D884FF6FF7606EA05252C434FF6FF
:10186000DF752A408D8906EA05152A434D8806EA68
:1018700005152A43304DA84202D0354DA8421DD14E
:101880004FF67F752A40CD894FF6FF7606EA05159B
:101890002A434FF6BF752A408D8806EA05152A436C
:1018A0004FF6FF352B404FF2FF752B400D8A06EAAD
:1018B00085052B434D8A06EA85052B4383800483E7
:1018C0008D688563028470BD70B5002400220023FA
:1018D000058C4FF6FF6635400584028C8388848B27
:1018E0004FF68F752C404FF6FC752C400D882C431D
:1018F0004FF6FF552A408D894FF6FF7606EA0525FB
:101900002A434D8806EA05252A430B4DA84202D0FA
:101910000F4DA84238D14FF2FF752A40CD894FF6BE
:10192000FF7606EA05252A434FF6FF352A408D88C3
:1019300006EA05252A4319E00000014000040040A2
:1019400000080040000C004000100040001400405F
:1019500000040140004001400044014000480140B3
:1019600000180040001C0040002000404EF6FF75AB
:101970002B404DF6FF752B400D8A06EA05152B43CB
:101980004D8A06EA05152B43838084838D68C563E1
:10199000028470BD70B5002200230024058C4EF631
:1019A000FF7635400584038C8488828B48F6FF756A
:1019B0002A404FF6FF452A400D884FF6FF7606EA8B
:1019C00005252A434DF6FF752B408D8906EA05351E
:1019D0002B434D8806EA05352B43FE4DA84202D025
:1019E000FD4DA84208D14BF6FF752C400D8A4FF6ED
:1019F000FF7606EA85152C43848082838D68056412
:101A0000038470BD002101804180818081608181DB
:101A1000C18101824182704770B5034600200024D5
:101A20001846183001258D40ACB21D8CA5431D848D
:101A300009B108290AD100EB610005684FF68F76DD
:101A4000354005600568154305600FE00D1FC5F3BF
:101A50004E052844056848F6FF7635400560056860
:101A60004FF6FF7606EA02263543056070BD4163F6
:101A7000704781637047C1637047016470470A46CD
:101A80000021018B4FF68F7319401143018370477A
:101A90000A460021018B48F6FF7319404FF6FF7389
:101AA00003EA02231943018370470A460021818B10
:101AB0004FF68F7319401143818370470A46002106
:101AC000818B48F6FF7319404FF6FF7303EA022338
:101AD0001943818370470A460021018B4FF6F77343
:101AE00019401143018370470A460021018B4FF2D0
:101AF000FF7319404FF6FF7303EA02231943018372
:101B000070470A460021818B4FF6F7731940114345
:101B1000818370470A460021818B4FF2FF73194081
:101B20004FF6FF7303EA02231943818370470A4685
:101B30000021018B4FF6FB7319401143018370475D
:101B40000A460021018B4FF6FF3319404FF6FF7311
:101B500003EA02231943018370470A460021818B5F
:101B60004FF6FB7319401143818370470A460021E9
:101B7000818B4FF6FF3319404FF6FF7303EA0223C0
:101B80001943818370470A460021018B4FF67F730A
:101B900019401143018370470A460021018BC1F3AC
:101BA0000E014FF6FF7303EA0223194301837047C6
:101BB0000A460021818B4FF67F73194011438183C0
:101BC00070470A460021818BC1F30E014FF6FF7367
:101BD00003EA02231943818370470A460021018CDE
:101BE0004FF6FD7319401143018470470A460021E6
:101BF000018C4FF6F77319401143018470470A4670
:101C00000021018C4FF6DF7319404FF6FF7303EA92
:101C100002131943018470470A460021018C4FF6D4
:101C20007F7319404FF6FF7303EA021319430184CF
:101C300070470A460021018C4FF6FF5319404FF6BA
:101C4000FF7303EA02231943018470470A46002107
:101C5000018C4FF2FF7319404FF6FF7303EA022322
:101C60001943018470470A460021018C4DF6FF7329
:101C700019404FF6FF7303EA02331943018470479A
:101C800030B5002301248C40A3B2048C9C4304840F
:101C9000048C02FA01F5ADB22C43048430BD30B59A
:101CA000002304248C40A3B2048C9C430484048C41
:101CB00002FA01F5ADB22C43048430BD828B4FF2A1
:101CC000FF331A408283828B4FF6FF7303EA0123AE
:101CD0001A4382837047F0B50C4615460021002256
:101CE0000026078C4EF6FF7C07EA0C070784818BE1
:101CF000028C4FF6FF7707EA043640F6FF4739407B
:101D00004FF6FF7707EA052739434FF6FF7707EAD3
:101D10000337394345F6FF773A4046F480573A4354
:101D200081830284F0BD828B4FF6F3731A40828365
:101D3000828B0A4382837047F0B50C46154600211A
:101D400000220026078C4FF6FF6C07EA0C07078479
:101D5000818B028C4FF6FF7707EA04264FF60C774B
:101D600039404FF6FF7707EA03172F4339434FF205
:101D7000FF573A4046F480773A4381830284F0BDAE
:101D8000028B4FF2FF331A400283028B4FF6FF7330
:101D900003EA01231A4302837047F0B50C46154647
:101DA000002100220026078C4FF6EF7C07EA0C0783
:101DB0000784018B028C4FF6FF7707EA041640F682
:101DC000FF4739404FF6FF7707EA033739434FF6AD
:101DD000FF7703E0000001400004014007EA052707
:101DE00039434FF65F773A4046F010073A43018394
:101DF0000284F0BD028B4FF6F3731A400283028B0C
:101E00000A4302837047F0B50C46154600210022B4
:101E1000068C4FF6FE773E400684018B028C4FF60F
:101E20000C7631407E1C06EA03162E4331434FF6F2
:101E3000F576324044F00106324301830284F0BD5E
:101E400070B505460C46208850B92389A288618860
:101E50002846FFF7D8FFE1882846FFF7CBFF25E0AB
:101E6000208804280AD12389A28861882846FFF7A0
:101E700094FFE1882846FFF783FF17E020880828B1
:101E80000AD12389A28861882846FFF755FFE18897
:101E90002846FFF748FF09E02389A2886188284681
:101EA000FFF719FFE1882846FFF708FF70BD002102
:101EB00001804180012181800021C1800181704722
:101EC0002DE9F04105460C4600260127608808B937
:101ED000022600E00026A088012801D1022700E0A8
:101EE00001272088A0B92389A28861882846FFF7A6
:101EF0008AFFE1882846FFF77DFF23893A4631466D
:101F00002846FFF74AFFE1882846FFF739FF13E02C
:101F10002389A28861882846FFF73FFFE188284689
:101F2000FFF72EFF23893A4631462846FFF76BFF1D
:101F3000E1882846FFF75EFFBDE8F0810146486B67
:101F400070470146886B70470146C86B7047014671
:101F5000086C70470A884B881A438B881A43CB88D1
:101F60001A430B891A434B891A438B891A43A0F8E9
:101F7000442070470021018041808180C18001811F
:101F800041818181704731B1B0F8442042F4004270
:101F9000A0F8442005E0B0F84420C2F30E02A0F8F7
:101FA0004420704721B1828842F00402828004E01C
:101FB00082884FF6FB731A408280704721B1828875
:101FC00042F00102828004E082884FF6FE731A40DC
:101FD000828070471AB183890B43838102E0838931
:101FE0008B43838170478182704702460020138AA9
:101FF0000B400BB1012000E000207047CA43028271
:10200000704730B50246002000230024158A05EAF7
:102010000103958905EA010413B10CB1012000E028
:10202000002030BDCA430282704741EA0203A0F893
:10203000483070471AB183890B43838102E083895A
:102040008B438381704721B1828842F008028280ED
:1020500004E082884FF6F7731A4082807047018946
:102060004FF6F8721140018170470A46002101893C
:102070004FF68F73194011430181704730B5044604
:102080000D4629462046FFF7F0FF208940F0070063
:10209000208130BD2DE9F04104460D4616461F460D
:1020A000602D06D13B46012231462046FFF775FEE2
:1020B00005E03B46012231462046FFF7A4FE2946B3
:1020C0002046FFF7D2FF208940F007002081BDE8BD
:1020D000F08130B50C4600210189C9B24FF6FF7579
:1020E00005EA0325154325432943018130BD2DE928
:1020F000F04105460E4617469846002443463A46A8
:1021000031462846FFF7E5FF2C894FF6F87004406A
:1021100044F007044FF68F70044044F070042C81A3
:10212000BDE8F081F0B504460D4616461F463B4615
:10213000324629462046FFF7CCFF208940F48040F4
:102140002081F0BD82884FF68F731A40828082888A
:102150000A438280704702894FF6F8731A40028161
:1021600002890A430281704702894FF67F731A4041
:10217000028102890A4302817047F0B50C46154678
:102180001E460021002200230189028B038C4FF69A
:10219000F877394021434FF6FC473A4040F20117A7
:1021A0003A434FF6DD773B404FF6FF7707EA0617D5
:1021B0002F433B43018102830384F0BD21B1828818
:1021C00042F08002828004E082884FF67F731A40DA
:1021D00082807047A0F850107047000010B5044688
:1021E000FA48844208D101211020FEF7C0FE0021E8
:1021F0001020FEF7BCFE57E0F548844209D10121CA
:102200004804FEF7A3FE00214FF40030FEF79EFEC7
:102210004AE0F048844209D101218804FEF796FE85
:1022200000214FF48020FEF791FE3DE0EA48844211
:1022300009D10121C804FEF789FE00214FF40020D6
:10224000FEF784FE30E0E548844209D1012108050B
:10225000FEF77CFE00214FF48010FEF777FE23E0AE
:10226000DF48844208D101212020FEF780FE0021B2
:102270002020FEF77CFE17E0DA48844209D10121D4
:102280008807FEF763FE00214FF08040FEF75EFEF8
:102290000AE0D548844207D101214005FEF756FEE9
:1022A00000216005FEF752FE10BD2DE9FF470546EF
:1022B0000E460024A14600BFA046B08900B100BF71
:1022C0002C8A24F44054F08804432C82AC8941F2D7
:1022D0000C608443B0883189084371890843044302
:1022E000AC81AC8A24F44074B0890443AC82684663
:1022F000FEF7BDFCB548854202D0B948854202D1FF
:10230000DDF80C9001E0DDF80890A88900F40040A9
:1023100040B109EBC90000EB091031684900B0FB7E
:10232000F1F707E009EBC90000EB091031688900FB
:10233000B0FBF1F76420B7FBF0F004012009642141
:1023400001FB1078A88900F4004040B1322000EB76
:10235000C800B0FBF1F000F00700044308E03220B1
:1023600000EB08106421B0FBF1F000F00F00044313
:102370002C81BDE8FF874FF4165101600021818058
:10238000C18001810C21418100218181704710B5FC
:1023900002460020108A20F470600B884C8823438A
:1023A0008C882343CC8823431843108210BD00211E
:1023B000018041808180C180704721B1828942F4CF
:1023C0000052828104E082894DF6FF731A408281B7
:1023D0007047028B02F47F420283028B0A4302831E
:1023E000704721B1828942F40042828103E08289F0
:1023F000C2F30E028281704721B1828A42F40062E8
:10240000828204E0828A4FF2FF731A408282704710
:10241000C1F308028280704701468888C0F3080033
:102420007047028A4FF6F0731A400282028A0A430A
:102430000282704721B1828942F00202828104E067
:1024400082894FF6FD731A408281704782894FF26C
:10245000FF731A40828182890A4382817047028A0F
:102460004FF6DF731A400282028A0A4302827047E3
:1024700021B1028A42F48042028204E0028A4BF6D1
:10248000FF731A4002827047818941F00101818106
:10249000704721B1828A42F00802828204E0828A77
:1024A0004FF6F7731A4082827047028BD2B20283D2
:1024B000028B42EA01220283704721B1828A42F0F4
:1024C0002002828204E0828A4FF6DF731A40828201
:1024D000704721B1828A42F01002828204E0828A2F
:1024E0004FF6EF731A4082827047828A4FF6FB7371
:1024F0001A408282828A0A438282704721B1828A8C
:1025000042F00202828204E0828A4FF6FD731A4092
:10251000828270471AB1838A0B43838202E0838AE6
:102520008B4383827047F0B50346002400260025C4
:10253000002040F66A17B94200D100BF1846C1F327
:10254000421401F01F06012707FA06F5012C01D1FC
:102550000C3004E0022C01D1103000E014301AB12C
:1025600007682F43076002E00768AF430760F0BDCC
:1025700002460020B1F5007F00D100BF13880B4058
:102580000BB1012000E00020704701F40072B2F5A9
:10259000007F00D100BFCA430280704770B5024679
:1025A000002400230025002040F66A16B14200D125
:1025B00000BFC1F3421501F01F03012606FA03F321
:1025C000012D13D19689334017E00000001001401F
:1025D0000044004000480040004C004000500040D3
:1025E0000014014000780040007C0040022D02D120
:1025F000168A334001E0968A33400C12012606FA0F
:1026000004F41688344013B10CB1012000E000201E
:1026100070BD10B50022002340F66A14A14200D11B
:1026200000BF0A1201249440A3B2DC43048010BD11
:1026300010B504466FF00400FEF7A8F8E11704EBAC
:102640005171C1F3C701394A11701046007800EB8F
:102650004001C1EBC0104FF6FF7101EAC0003449E0
:10266000088010BD0146314A12784A434FF0E023FA
:102670005A6100229A611A46126942F001021A61F7
:1026800000BF4FF0E022106900F001021AB100F41F
:102690008032002AF5D04FF0E022126922F00102C8
:1026A0004FF0E0231A6100229A6170470146204AE8
:1026B00012884A434FF0E0235A6100229A611A4679
:1026C000126942F001021A6100BF4FF0E022106966
:1026D00000F001021AB100F48032002AF5D04FF068
:1026E000E022126922F001024FF0E0231A61002279
:1026F0009A61704770B504464FF4077094FBF0F090
:10270000C6B24FF4077094FBF0F100FB114085B2A4
:1027100005E04FF40770FFF7C9FF701EC6B2002E28
:10272000F7D115B12846FFF7C1FF70BD2400002086
:102730002600002000B587B04FF4A060FDF7D4FF5D
:1027400001210846FEF764FB01211020FEF7BAFBC9
:10275000072209213C48FEF748F907220A213A4896
:10276000FEF743F902208DF8180000208DF81A00BA
:102770004FF4C060059001208DF81B0002208DF8F9
:10278000190005A93048FEF7A5F84FF4E130019093
:102790000020ADF810000C20ADF80E000020ADF8C0
:1027A0000C00ADF80A00ADF8080001A92748FFF7B2
:1027B0007CFD01212548FFF700FE40212348FFF75B
:1027C000E4FE012240F225512048FFF7ACFE25200F
:1027D0008DF8000001208DF8030003208DF8010022
:1027E0008DF802006846FDF784FF07B000BD10B504
:1027F000044621461548FFF70BFE00BF8021134811
:10280000FFF7B6FE0028F9D010BD70B504460025CC
:1028100004E0605DFFF7EBFF681CC5B2605D002857
:10282000F7D100BF40210948FFF7A2FE0028F9D0E8
:1028300070BD00BF054A128802F04002002AF9D09C
:10284000C2B2024B9A807047000002400010014063
:1028500030B50B46014600202022012409E021FA70
:1028600002F59D4205D303FA02F5491B04FA02F56D
:102870002844151EA2F10102F1DC30BD064C074DC3
:1028800006E0E06840F0010394E807009847103440
:10289000AC42F6D3FDF77CFC342A0008542A000829
:1028A0000FB4054B10B503A9044A029800F018F8BC
:1028B00010BC5DF814FB000033280008280000203D
:1028C00002E008C8121F08C1002AFAD170477047F9
:1028D000002001E001C1121F002AFBD17047000057
:1028E0002DE9FF4F89B09B460446002506E02528C8
:1028F0000BD05A460B999047641C6D1C2078002819
:10290000F5D10DB02846BDE8F08F0027B84601226A
:10291000474900E0074314F8013F203B02FA03F067
:102920000842F7D120782E2819D114F8010F47F06A
:1029300004072A280ED06FF02F022078A0F1300172
:1029400009290CD808EB880102EB410100EB0108D2
:10295000641CF2E70A98641C50F8048B0A902078F3
:102960000028CED0642808D0692806D075281ED04B
:102970005A460B9990476D1C58E00A994FF00A0986
:1029800001C90A91002802DA40422D2102E03905EE
:1029900004D52B218DF82010012103E0F90704D084
:1029A0002021F7E78A4608AE0DE00021FAE70A99F0
:1029B0004FF00A0901C90A91F7E74946FFF748FFB6
:1029C000303106F8011D0028F7D1ADEB060000F10B
:1029D0002009780701D44FF00108C84502DDA8EBB3
:1029E000090000E000208046002706E008A85A46BB
:1029F000C05D0B9990476D1C7F1C5745F6DB04E0CA
:102A000030205A460B9990476D1CB8F10001A8F18F
:102A10000108F5DC05E016F8010B5A460B999047C2
:102A20006D1CB9F10001A9F10109F4DC641C65E732
:102A300009280100542A0008000000202C00000092
:102A4000C0280008802A00082C0000200404000090
:102A5000D0280008007A030A0000000000000000EF
:102A60000102030406070809000000000102030434
:102A7000010203040607080900000000000000002E
:040000050800018965
:00000001FF
