:020000040800F2
:10000000F8140020C5100008990E00089B0E000887
:100010009F0E0008A30E0008A70E000800000000B5
:10002000000000000000000000000000AB0E00080F
:10003000AD0E000800000000AF0E0008B10E000871
:10004000DF100008DF100008DF100008DF100008D4
:10005000DF100008DF100008DF100008DF100008C4
:10006000DF100008DF100008DF100008DF100008B4
:10007000DF100008DF100008DF100008DF100008A4
:10008000DF100008DF100008DF100008DF10000894
:10009000DF100008DF100008DF100008DF10000884
:1000A000DF100008DF100008DF100008DF10000874
:1000B000F10D0008D90D0008DF100008DF1000085E
:1000C000DF100008DF100008DF100008DF10000854
:1000D000DF1000084F080008DF100008DF100008DC
:1000E000DF100008DF100008DF100008DF10000834
:1000F000DF100008DF100008DF100008DF10000824
:10010000DF100008DF100008DF100008DF10000813
:10011000DF100008DF100008DF100008DF10000803
:10012000DF100008DF100008DF100008DF100008F3
:10013000DF100008DF100008DF100008DF100008E3
:10014000DF100008DF100008DF100008DF100008D3
:10015000DF100008DF100008DF100008DF100008C3
:10016000DF100008DF100008DF100008DF100008B3
:10017000DF100008DF100008DF100008DF100008A3
:10018000DF100008DF100008DFF80CD004F04CFB93
:100190000048004797040008F81400200020FE499A
:1001A0000978002901DD40F00100FC4909780029A7
:1001B00001DD40F00200FA490978002901DD40F034
:1001C0000400F8490978002901DD40F00800F649EB
:1001D000C870704710B50024F4480078002835D066
:1001E000F24800780A2802DD0A20F1490870F04838
:1001F0000078C0F10A00C000C0F15000C4B2ED4860
:100200000078072821D2DFE800F004080C10141849
:100210001C00204603F037FA17E0204603F06BFA83
:1002200013E0204603F04BFA0FE0204603F0B7FA44
:100230000BE0204603F097FA07E0204603F077FA38
:1002400003E0204603F0C7FA00BF0DE003F0DFFA39
:100250000021D94802F03DFB0021D74802F03BFBCA
:100260000021D54802F039FB10BD10B5012211461E
:10027000D24803F04EFDD1480078C74908700846BF
:10028000007810B904F058F901E004F04FF90122A8
:100290000221CA4803F03DFDC8480078BF490870F4
:1002A0000846007810B904F053F901E004F04AF967
:1002B00001220321C14803F02CFDC0480078B84951
:1002C00008700846007810B904F04EF901E004F017
:1002D00045F901220421B94803F01BFDB748007815
:1002E000B04908700846007810B904F049F901E0F7
:1002F00004F040F901220521B04803F00AFDAF489F
:100300000078AF4908700846007810B903F0BDFACC
:1003100001E003F0B4FA01220621A84803F0F9FC39
:10032000A6480078A74908700846007810B904F07C
:100330004DF901E004F044F9012207219F4803F040
:10034000E8FC9E480078A04908700846007810B97B
:1003500004F0CCF801E004F0C3F80122082197482A
:1003600003F0D7FC95480078984908700846007853
:1003700010B904F0AFF801E004F0A6F80122092159
:100380008E4803F0C6FC8D48007888490870012229
:100390000A218A4803F0BDFC884800788549087026
:1003A00001220B21854803F0B4FC84480078804981
:1003B0000870FFF70FFF02221021804803F0A9FC0C
:1003C0007E484178007801EB0020814908800222B4
:1003D00012217A4803F09DFC78484178007801EBBF
:1003E00000207C49088002221421744803F091FC0B
:1003F00072484178007801EB00207749088002229A
:1004000016216E4803F085FC6C484178007801EBBA
:1004100000207249088002221821684803F079FC04
:1004200066484178007801EB00206D49088002227F
:100430001A21624803F06DFC60484178007801EBB6
:1004400000206849088002221C215C4803F061FCFE
:100450005A484178007801EB002063490880022265
:100460001E21564803F055FC54484178007801EBB2
:1004700000205E49088010BD11204B49087099206A
:100480004870FF208870F02088779020C87710206F
:1004900081F820007047A82002F0FCFF04F02EF83D
:1004A00003F0D6F904F074F803F0F6FF03F0F6F960
:1004B00003F012FA4FF4A06000F016FE03F014FAF5
:1004C00003F01CFD03F070FD05E003F0FFF94FF4AD
:1004D0007A7003F041F803F0F9FE0028F5D103F03B
:1004E000F7FD03F0FBFD04F001F803F0F3FF03F068
:1004F000CCF904F06BF804F01FF804F029F804F0CC
:1005000033F804F03DF803F053FBFFF7B5FFFFF7B6
:10051000ACFE03F08EF803F07AF997E103F071FF77
:1005200033490880334803F02DFE33490870052114
:10053000002003F091FD314908800521032003F0DC
:100540008BFD2F4908802A48B0F900000A2190FB52
:10055000F1F000B226490880294800884FF2302186
:10056000884203DD08462649088008E024480088C0
:1005700048F2E801884202DA08462149088020480A
:100580000088A0F50040E8384FF4917190FBF1F03D
:10059000C0F164001A4935E001000020020000208B
:1005A0000300002004000020700000200A0000204A
:1005B0000C0000200B000020000400403C00002044
:1005C0000500002006000020070000200800002091
:1005D0000E00002010000020120000201400002057
:1005E00016000020180000201A0000201C00002027
:1005F000240000201E0000202A00002028000020E7
:10060000260000200880F94800884DF2F021884239
:1006100003DD0846F549088008E0F4480088B0F595
:100620007A7F03DA4FF47A70F0490880EF48008847
:10063000A0F57A7040F2122190FBF1F0C0F1640055
:10064000EA490880FFF7AAFDE9480078E9490871FE
:10065000E94800784871E94800788871E8480078EE
:10066000C871E84800780872E74800784872E7489F
:1006700000788872E6480078C87200200873E54860
:100680008078487300208873E2480078C873E24895
:100690000088000A0874E04800784874DF48008841
:1006A00000128874DD480078C874D04800880012B1
:1006B0000875CE4800784875D94800888875D948AB
:1006C0000088C875D84800880876D84800884876D9
:1006D000D74800888876D7480088C876D6480088EA
:1006E0000877D648008848770020D5490870C9485F
:1006F0008078CB490988884206DDD148007840F0EF
:100700000100CF4908700BE0C2488078C5490988CC
:10071000884205DACA48007840F00100C8490870EC
:10072000BC480078C0490988884206DDC448007882
:1007300040F00100C24908700BE0B6480078BB49A0
:100740000988884205DABE48007840F00100BC49BB
:100750000870B148B0F90000B5490988884206DD43
:10076000B748007840F00100B54908700CE0AA488D
:10077000B0F90000AF490988884205DAB04800782E
:1007800040F00100AE490870A4480088AA490988D1
:10079000884206DDAA48007840F00100A8490870A8
:1007A0000BE09E480088A5490988884205DAA448DC
:1007B000007840F00100A2490870A148007818B9FB
:1007C00000209049087002E001208E4908709D4881
:1007D000006838B19B480068401E9A49086003F0E1
:1007E0007FFE01E003F082FE9748006838B196482A
:1007F0000068401E9449086003F066FE01E003F0C3
:1008000069FE9248006858B190480068401E8F49C0
:10081000086008460068052818D90520086015E01A
:1008200000208B4908700AE07249894A1278885C76
:1008300003F0D3F886480078401C85490870844846
:1008400000782128F0DB05208049086066E610B5B5
:1008500040F225517F4802F0D3FD002811D07D4899
:1008600002F00CFDC4B2204603F0B7F87A480078D5
:1008700040B93CB97948784909784454012076490F
:100880000870A8E274480078012809D1AA2C07D181
:10089000724871490978445402206F4908709AE2FD
:1008A0006D480078022809D1EE2C07D16B486A49BF
:1008B000097844540320684908708CE2664800783F
:1008C000032809D1142C07DC64486349097844548F
:1008D0000420614908707EE25F480078042807D14F
:1008E0005E485D490978445405205B49087072E20E
:1008F00059480078052807D1584857490978445481
:1009000006205549087066E253480078062809D148
:10091000EF2C07D1514850490978445407204E49DB
:10092000087058E24C480078072809D1AB2C07D151
:100930004A484949097844540820474908704AE21E
:100940004548007808284FD1012CFCD144A003F081
:100950008DFF424840490978445400203E490870C0
:100960003E48C078152824D2DFE800F00B24849E8E
:10097000B8D2FAF8F7F6F5F4F3F2F123F0EFEEED72
:10098000EC003648407940B900203749087003F040
:10099000D3FD00203549087006E001203249087077
:1009A0003249087003F0C2FD012211462E4803F0BF
:1009B000F4F90CE22948407940B900202A4908702E
:1009C00003F0C6FD00202A49087007E001202649EF
:1009D000087003F0B7FD01202549087001220221AB
:1009E000214803F0DAF9F2E1F2E1000028000020EA
:1009F00005000020700000200600002007000020F5
:100A000008000020090000200A0000200B00002040
:100A10000C0000201E0000202400002026000020E2
:100A20000E00002010000020120000201400002002
:100A300016000020180000201A0000201C000020D2
:100A40002E0000203400002038000020300000205C
:100A500000000020001001403E0000209100002016
:100A6000204F4B21200000003C000020010000200E
:100A700002000020ED48407940B90020EC490870A0
:100A800003F072FD0020EB49087007E00120E849FF
:100A9000087003F063FD0120E6490870012203217C
:100AA000E34803F07AF992E1E048407940B9002048
:100AB000DF49087003F064FD0020DF49087007E09B
:100AC0000120DB49087003F055FD0120DA49087068
:100AD00001220421D64803F060F978E1D348407937
:100AE00040B90020D249087002F0CFFE0020D3495F
:100AF000087007E00120CE49087002F0C0FE012016
:100B0000CE49087001220521C94803F046F95EE18B
:100B1000C648407940B90020C549087003F056FD29
:100B20000020C749087007E00120C149087003F0A0
:100B300047FD0120C249087001220621BC4803F08C
:100B40002CF944E140E123E106E1E9E0CCE0AFE04B
:100B500092E075E058E047E036E01FE010E0FFE784
:100B6000B248407928B90020B1490870B5490860F9
:100B700005E00120AE4908706420B249086026E112
:100B8000AA48407918B90020AF49086005E0012063
:100B9000A74908706420AC49086018E1A34840796F
:100BA00028B90020A2490870A849087004E0012073
:100BB0009F490870A5490870012209219C4803F04B
:100BC000ECF8FFF707FB02E1984840799849087074
:100BD000084600789E49087001220A21944803F0D3
:100BE000DCF8FFF7F7FAF2E0904840799049087096
:100BF000084600789749087001220B218C4803F0C1
:100C0000CCF8FFF7E7FAE2E08848007988490870F5
:100C100086484079487008464178007801EB00200A
:100C20008D4908808248427801788B4803888BA0E0
:100C300003F01CFE022210217D4803F0AEF8C6E04E
:100C40007A4800797A4908707848407948700846AF
:100C50004178007801EB002084490880744842788C
:100C60000178824803887DA003F000FE0222122151
:100C70006F4803F092F8AAE06C4800796C4908705C
:100C80006A484079487008464178007801EB0020B6
:100C900077490880664842780178754803886FA0D4
:100CA00003F0E4FD02221421614803F076F88EE09F
:100CB0005E4800795E4908705C4840794870084693
:100CC0004178007801EB00206A4908805848427852
:100CD00001786848038861A003F0C8FD022216214C
:100CE000534803F05AF872E05048007950490870B0
:100CF0004E484079487008464178007801EB002062
:100D00005D4908804A48427801785B48038853A0CF
:100D100003F0ACFD02221821454803F03EF856E0EE
:100D20004248007942490870404840794870084676
:100D30004178007801EB0020504908803C48427817
:100D400001784E48038845A003F090FD02221A2145
:100D5000374803F022F83AE0344800793449087003
:100D600032484079487008464178007801EB00200D
:100D7000434908802E48427801784148038837A0CB
:100D800003F074FD02221C21294803F006F81EE03E
:100D9000264800792649087024484079487008465A
:100DA0004178007801EB00203649088020484278DD
:100DB00001783448038829A003F058FD02221E213F
:100DC0001B4802F0EAFF02E002F034FE00BF02E03E
:100DD00000202D49087010BD10B501212B4802F0EC
:100DE00042F8012803D10121284802F04DF810BD36
:100DF00010B50121880702F036F8012814D12448E3
:100E0000007840B90120224908702248007838B1A2
:100E100002F05CFD04E000201D49087002F05CFD5A
:100E20000121880702F030F810BD00009100002079
:100E30003C000020030000200400002005000020EA
:100E40000600002034000020380000200A000020A6
:100E50000B0000200C0000200E00002025642C2038
:100E60002564203D3E202564000000001000002085
:100E7000120000201400002016000020180000209E
:100E80001A0000201C0000203E000020000400404A
:100E90003F00002009000020704700BFFEE700BFB0
:100EA000FEE700BFFEE700BFFEE7704770477047F0
:100EB000704700000CB50020019000907648006853
:100EC00040F480307449086000BF7348006800F443
:100ED000003000900198401C0190009818B90198CA
:100EE000B0F5A04FF1D16C48006800F4003010B1AB
:100EF0000120009001E0002000900098012846D1D8
:100F000065484030006840F08050634940310860D7
:100F10006248006840F44040604908605E4808301C
:100F200000685D49083108600846006840F40040E8
:100F300008600846006840F4A05008605848091F3F
:100F40000860081F006840F08070091F086000BF3B
:100F50005148006800F000700028F9D040F2057098
:100F6000504908604C480830006820F003004A49A6
:100F7000083108600846006840F00200086000BFC1
:100F800045480830006800F00C000828F8D10CBD76
:100F900010B54548006840F47000434908603E4879
:100FA000006840F001003C49086000203A490831DF
:100FB0000860394800683D490840374908603C48A6
:100FC000091D0860081F006820F48020091F0860C0
:100FD000002031490C310860FFF76CFF4FF00060D2
:100FE00031498039086010BD70B50020002202230D
:100FF00000240221284D08352D6805F00C0020B191
:10100000042806D0082834D107E02A4D2A4E35603E
:1010100033E02A4D284E35602FE01F4D2D1D2D68E1
:10102000C5F380541C4D2D1D2D6805F03F0154B1B2
:10103000224DB5FBF1F5184E361D3668C6F38816FD
:1010400005FB06F209E01B4DB5FBF1F5124E361D0E
:101050003668C6F3881605FB06F20F4D2D1D2D6868
:10106000C5F301456D1C6B00B2FBF3F5124E356004
:1010700003E0104D104E356000BF00BF064D08352F
:101080002D68C5F303150E4E705D0B4D2D68C540E0
:10109000094E356070BD000000380240007000400D
:1010A00008544007003C024088ED00E0FFFFF6FED8
:1010B000103000240024F4004000002000127A00C8
:1010C000440000200648804706480047FEE7FEE748
:1010D000FEE7FEE7FEE7FEE7FEE7FEE7FEE7FEE7E8
:1010E000910F00088901000832490143324A11601A
:1010F000704770B5002100230F22C4781CB32E4C1A
:10110000246804F4E064C4F5E064C4F30721C1F189
:101110000404E3B20A4144789C40E1B2847814406C
:1011200021430C07210E254C05786155047804F005
:101130001F050124AC4005786D11AD0005F1E025D7
:10114000C5F8004109E0047804F01F050124AC4013
:101150001B4D0678761145F8264070BD194A0A40A5
:101160000243154B1B1F1A60704739B1124A121DFA
:1011700012680243104B1B1D1A6006E00E4A121D36
:10118000126882430C4B1B1D1A607047042808D15B
:101190004FF0E021096941F004014FF0E0221161B4
:1011A00007E04FF0E021096921F004014FF0E0224F
:1011B000116170470000FA050CED00E000E400E06A
:1011C00080E100E080FFFF1F10B50121080200F060
:1011D00000FE00214FF4807000F0FBFD10BD30B523
:1011E0000246002000235068F84C20400D790C681E
:1011F00044EA0524204350609068F54C2040D1E932
:1012000003542C438D682C434D7944EA4504204314
:101210009060D06A20F470000C7D641EE4B2234319
:1012200040EA0350D06230BD00210160017141717C
:101230008160C16001610121017570470021E54AAB
:101240001168E54A1140D0E900231A4383681A4324
:10125000C3681A431143E14AC2F8041370470021DE
:10126000016041608160C160704721B1826842F0D5
:101270000102826003E0826822F00102826070470E
:101280000A4600214168D64B19401143416070471E
:101290004162826270470A460021416821F01F01C5
:1012A00011434160704738B1CA49096841F40001EF
:1012B000CA4AC2F8041306E0C649096821F40001CD
:1012C000C64AC2F80413704738B1C249096841F4EC
:1012D0008001C24AC2F8041306E0BE49096821F43D
:1012E0008001BE4AC2F804137047F0B504460D46AB
:1012F00000200021092D11DDE068A5F10A0606EBAA
:101300004607072606FA07F18843A5F10A0606EB09
:10131000460603FA06F10843E0600CE0206905EB9D
:101320004507072606FA07F1884305EB450603FA49
:1013300006F108432061072A0FDA606B561E06EBA0
:1013400086071F2606FA07F18843561E06EB860617
:1013500005FA06F10843606322E00D2A0FDA206BDC
:10136000D61F06EB86071F2606FA07F18843D61F0D
:1013700006EB860605FA06F10843206310E0E06AF2
:10138000A2F10D0606EB86071F2606FA07F1884331
:10139000A2F10D0606EB860605FA06F10843E062A7
:1013A000F0BD816841F080418160704701460020B6
:1013B0008A6802F080420AB1012000E000207047F4
:1013C00021B1826842F48062826003E0826822F484
:1013D00080628260704721B1826842F002028260BE
:1013E00003E0826822F002028260704710B50A466C
:1013F00000210023416821F46041531E41EA43313A
:10140000416010BD21B1426842F40062426003E0D5
:10141000426822F40062426070470146C86C80B2A4
:1014200070476C48001D0068704721B1826842F423
:101430008072826003E0826822F48072826070476A
:1014400021B1826842F40072826003E0826822F473
:1014500000728260704738B15E49096841F40051FA
:101460005E4AC2F8041306E05A49096821F40051A3
:101470005A4AC2F804137047F0B5044615460020D6
:1014800000220026092911DDE068A1F10A0707EB17
:10149000470C072707FA0CF29043A1F10A0707EB64
:1014A000470703FA07F21043E0600CE0206901EB04
:1014B000410C072707FA0CF2904301EB410703FAAE
:1014C00007F210432061A06BC0F30156EF1C06F138
:1014D000010CA7EB0C0707EB870C1F2707FA0CF290
:1014E0009043EF1C06F1010CA7EB0C0707EB8707F5
:1014F00001FA07F21043A063F0BD10B50A460021BF
:101500000023816B21F44011531E41EA0351816392
:1015100010BD08B5002300930090009B0B4400937E
:10152000009B1A6008BD0A460021816821F47021E1
:101530001143816070470A460021816821F44011FF
:10154000114381607047816841F480018160704778
:10155000014600208A6802F480020AB1012000E0FE
:101560000020704721B1426842F48062426003E08B
:10157000426822F480624260704721B1426842F4BE
:101580008052426003E0426822F480524260704719
:1015900008B5024600200090009201F12800009B4F
:1015A000184400900098006880B208BD10B50B4642
:1015B0000021D9B2012404FA01F11AB144680C43A4
:1015C000446002E044688C43446010BDFFFEFFFCB1
:1015D000FDF7FFC004230140E030FCFF0020014084
:1015E000FFFD3FFF0246002013680B400BB10120B6
:1015F00000E000207047CA430260704770B50246A1
:101600000020002300240B12556801268E4005EAB5
:10161000060415681D4015B10CB1012000E0002042
:1016200070BD00220A12D3430360704710B5044610
:101630009848844208D10121084600F086FB002129
:10164000012000F082FB76E09348844208D101211A
:10165000022000F07AFB0021022000F076FB6AE015
:101660008E48844208D10121042000F06EFB002145
:10167000042000F06AFB5EE08948844208D1012121
:10168000082000F062FB0021082000F05EFB52E021
:101690008448844208D10121102000F056FB00212B
:1016A000102000F052FB46E07F48844208D101211F
:1016B000202000F04AFB0021202000F046FB3AE009
:1016C0007A48844208D10121402000F03EFB0021ED
:1016D000402000F03AFB2EE07548844208D10121F9
:1016E000802000F032FB0021802000F02EFB22E061
:1016F0007048844208D10121801500F026FB0021AA
:10170000A01500F022FB16E06B48844208D10121AD
:10171000401500F01AFB0021601500F016FB0AE0EE
:101720006648844207D10121001500F00EFB00211C
:10173000201500F00AFB10BDF0B50A460021002379
:10174000002400BF3DE0012505FA01F3156805EA14
:1017500003049C4234D105684F000326BE40B543C4
:10176000056015794E00B54006683543056015796A
:10177000012D02D01579022D16D185684F00032660
:10178000BE40B543856055794E00B5408668354307
:101790008560456801268E40B54345604568967969
:1017A0008E40B6B235434560C5684F000326BE4043
:1017B000B543C560D5794E00B540C6683543C560B0
:1017C000491C1029BFD3F0BD4FF6FF710160002105
:1017D000017141718171C171704708B54FF4803258
:1017E0000092009A0A430092009AC261C161009A75
:1017F000C261C2690092C269009208BD024600201F
:1018000013690B400BB1012000E000207047014636
:10181000086980B270470246002053690B400BB143
:10182000012000E0002070470146486980B27047FF
:1018300001837047418370470AB1018300E041830F
:1018400070474161704742694A4042617047F0B554
:10185000002300244D07ED0E02FA05F3CE1000F12F
:10186000200555F826504E07F70E0F26BE40B5430B
:10187000CF1000F1200646F82750CE1000F12005C9
:1018800055F8265045EA0304CE1000F1200545F82E
:101890002640F0BD00000240000402400008024063
:1018A000000C0240001002400014024000180240E8
:1018B000001C024000200240002402400028024098
:1018C000F948006840F00100F74908600020F64937
:1018D00008310860F4480068F4490840F24908609B
:1018E000F348091D0860F348EF4984310860F04867
:1018F0001038091D0860EC48006820F48020EA498F
:1019000008600020E8490C310860E7498C31086024
:1019100070470021E44A921C11701146087070470C
:1019200010B501460022002300204A11012A02D1ED
:10193000DD4C236808E0022A03D1DB4C70342368B5
:1019400002E0D94C7434236801F01F020124944052
:101950001C400CB1012000E0002010BD38B5002073
:1019600000900024002500BF3120FFF7D9FF054675
:101970000098401C00900098B0F5A04F01D0002DB9
:10198000F2D03120FFF7CCFF08B1012400E00024A1
:10199000204638BD01460020C34A106820F0F800F8
:1019A00040EAC10010607047C349086070470021D9
:1019B000BD4A703211701170012802D004280AD17A
:1019C00004E00121B84A7032117005E00521B64AE1
:1019D0007032117000E000BF00BF7047B749086067
:1019E000704770B5049C41EA82150126C6EB530688
:1019F00045EA0645054345EA0465AB4E361D3560AC
:101A000070BDAD4908667047820142EA0172A64B7B
:101A100084331A607047A8498866704710B58301FF
:101A200043EA016343EA02739F4C8834236010BD8C
:101A3000A14908677047A049C86470470246002062
:101A4000994B0833186820F0EC6042EA0103184310
:101A5000954B08331860704702460020924B0833BC
:101A6000186820F0784042EA010318438E4B08338F
:101A700018607047014600208B4A0832106820F039
:101A8000030008431060704787480830006800F082
:101A90000C00704701460020834A0832106820F08D
:101AA000F000084310607047014600207E4A08326B
:101AB000106820F4E0500843106070470146002091
:101AC000794A0832106820F4604040EAC100106092
:101AD0007047F0B5002100220024022500260223D1
:101AE000714F08373F6807F00C0121B1042905D078
:101AF000082937D105E0724F076036E0714F076063
:101B000033E0694F3F1D3F68C7F38056664F3F1D66
:101B10003F6807F03F036EB16A4FB7FBF3F7DFF89A
:101B200088C10CF1040CDCF800C0CCF3881C07FB66
:101B30000CF40CE0624FB7FBF3F7DFF86CC10CF16B
:101B4000040CDCF800C0CCF3881C07FB0CF4564FE7
:101B50003F1D3F68C7F301477F1C7D00B4FBF5F7CD
:101B6000076002E0564F076000BF00BF4E4F0837C6
:101B70003F6807F0F0010909534F7A5C0768D740C6
:101B80004760494F08373F6807F4E051890A4E4FD4
:101B90007A5C4768D7408760434F08373F6807F44F
:101BA0006041490B484F7A5C4768D740C760F0BD39
:101BB000002100F44072B2F5407F0AD13A4A08325F
:101BC000116821F4F811414A02401143364A0832A3
:101BD0001160354A70321268C0F30B031A43324B5E
:101BE00070331A607047354944390860704733498B
:101BF0004039086070473649086070470146002048
:101C0000294A8C32106820F01F004A1E1043264AD1
:101C10008C321060704701460020234A8C321068D5
:101C200020F4F8504A1E40EA02201F4A8C3210600D
:101C30007047014600201C4A8C32106820F4401086
:101C400008431060704701460020174A8C32106824
:101C500020F4400008431060704701460020124AFB
:101C60008C32106820F440300843106070471949E6
:101C70000860704739B10C4A3032126802430A4B8F
:101C800030331A6006E0084A303212688243064B4D
:101C900030331A607047F9B1034A34321268024394
:101CA000014B34331A601CE000380240FFFFF6EAB3
:101CB000103000240030002000004742800E4742D0
:101CC0000024F40000127A0054000020FFFCFF0FF3
:101CD0005C014742E01147428F4A126882438E4BB3
:101CE0001A60704739B18C4A121D126802438A4B40
:101CF0001B1D1A6006E0884A121D12688243864B3B
:101D00001B1D1A60704739B1834A0C3212680243B6
:101D1000814B0C331A6006E07F4A0C321268824312
:101D20007D4B0C331A60704739B17B4A1032126810
:101D30000243794B10331A6006E0774A103212687A
:101D40008243754B10331A60704739B1724A243A96
:101D500012680243704B243B1A6006E06E4A243A34
:101D6000126882436C4B243B1A60704739B16A4A4F
:101D7000203A12680243684B203B1A6006E0664A2C
:101D8000203A12688243644B203B1A60704739B195
:101D9000614A1C3A126802435F4B1C3B1A6006E022
:101DA0005D4A1C3A126882435B4B1C3B1A607047C9
:101DB00039B1594A143A12680243574B143B1A601E
:101DC00006E0554A143A12688243534B143B1A609A
:101DD000704739B1504A103A126802434E4B103BDB
:101DE0001A6006E04C4A103A126882434A4B103B94
:101DF0001A60704739B1484A1C3212680243464B98
:101E00001C331A6006E0444A1C3212688243424B7B
:101E10001C331A60704739B13F4A203212680243BE
:101E20003D4B20331A6006E03B4A20321268824361
:101E3000394B20331A60704739B1374A243212685F
:101E40000243354B24331A6006E0334A24321268C9
:101E50008243314B24331A60704739B12E4A2C32F9
:101E6000126802432C4B2C331A6006E02A4A2C32AB
:101E700012688243284B2C331A60704739B1264AC6
:101E8000303212680243244B30331A6006E0224A93
:101E9000303212688243204B30331A607047012879
:101EA00008D11D493C31096841F008011A4A3C3209
:101EB000116007E018493C31096821F00801164A11
:101EC0003C321160704739B1134A273A1278024305
:101ED000114B273B1A7006E00F4A273A12788243CB
:101EE0000D4B273B1A7070470B484030006840F09C
:101EF0008070094940310860704701460020064A59
:101F0000283A12680A400AB1012000E00020704718
:101F100001492639087070473438024010B504462C
:101F2000FB48844208D101218014FFF752FF0021B1
:101F3000A014FFF74EFF3CE0F648844208D101218F
:101F40000014FFF735FF00212014FFF731FF30E0C8
:101F5000F148844208D10121C013FFF729FF002175
:101F6000E013FFF725FF24E0EC48844208D101216B
:101F70004014FFF72EFF00216014FFF72AFF18E03E
:101F8000E748844209D101210805FFF722FF00211B
:101F90004FF48010FFF71DFF0BE0E248844208D1A8
:101FA00001214805FFF715FF00214FF40010FFF74E
:101FB00010FF10BD10B50022028802F441520B88B8
:101FC0004C8823438C882343CC8823430C892343A8
:101FD0004C8923438C892343CC8923431A430280B1
:101FE000838B4FF2FF74234083830B8A038210BDDF
:101FF0002DE9F04F0025022300244FF001090022B3
:102000000026002794469046B0F81CA04FF2400BE3
:102010000AEA0B0AA0F81CA04FF0020AA0F820A0C0
:10202000858BD1F808A0BAF1020F01D100BF82E080
:10203000B1F804A0BAF1000F02D14FF0010901E09C
:102040004FF00209DFF8E0A2DAF800A00AF4000A73
:10205000BAF1000F09D0DFF8D0A2DAF800A02AF414
:10206000000ADFF8C4B2CBF800A0DFF8BCA20AF186
:102070007C0ADAF800A0CAF3881CDFF8ACA20AF1E7
:102080007C0ADAF800A0CAF30278DFF89CA2AAF171
:10209000040ADAF800A00AF03F07DFF88CA2AAF1E0
:1020A000040ADAF800A00AF4800ABAF5800F08D111
:1020B000DFF878A2BAFBF7FA0AFB0CFABAFBF8F6DB
:1020C00007E0DFF86CA2BAFBF7FA0AFB0CFABAFBDE
:1020D000F8F6B1F806A0BAF5007F0ED14FEA162A3D
:1020E0000AEB8A0A4FEA4A0AD1F808B0BAFBFBFAAF
:1020F0000AF1050A1FFA8AF20FE04FEA491AB6FB05
:10210000FAFA0AEB8A0A4FEA4A0AD1F808B0BAFB8F
:10211000FBFA0AF1050A1FFA8AF24FF00A0AB2FB2B
:10212000FAF202F00104A2EB040ACAF34F034FF6DD
:10213000FF7A0AEA0424022B01DBFF2B01DD0223D4
:102140000024B1F806A04AEA040A4AEA030AA0F801
:1021500020A0B1F804A0B1F80CB04AEA0B0AB1F81B
:1021600002B04AEA0B0AB1F800B04AEA0B0A4AF494
:10217000006A4AEA05058583BDE8F08F00210180E9
:1021800041808180C180018141818181C18107219C
:10219000018270470021018041808180C18002213D
:1021A000816000218181704721B1028842F04002A4
:1021B000028004E002884FF6BF731A400280704725
:1021C00021B1828B42F48062828304E0828B4FF6DD
:1021D000FF331A408283704702884FF2FF731A4020
:1021E000028002880A4302807047B1F5804F04D113
:1021F000028842F48042028004E002884BF6FF73BA
:102200001A40028070474FF6FF62914204D0028864
:1022100042F48072028004E002884FF6FF631A40A5
:102220000280704721B1828842F00402828004E07B
:1022300082884FF6FB731A408280704721B18288F2
:1022400042F01002828004E082884FF6EF731A4059
:102250008280704730B500220023848B4FF2400506
:102260002C40848302240484828B0C88B4F5007F84
:1022700001D00C8814B94FF4807308E00C88B4F5D1
:10228000407F03D00C88B4F5807F00D100238C8878
:102290008D892C434D882C431C4344F40064224315
:1022A000828330BD0146888970478181704721B1A2
:1022B000028842F40052028004E002884DF6FF7367
:1022C0001A4002807047018841F4805101807047B4
:1022D00002460020012901D0108B00E0908A70474F
:1022E0000146088A70471AB183880B43838002E055
:1022F00083888B438380704730B5002400230C1102
:102300000125A540ABB2AAB185881D43858014E0A4
:102310000030014000380040003C004000340140E3
:1023200000500140005401400838024000127A0079
:102330000024F40085889D43858030BD024600203E
:1023400013890B400BB1012000E000207047CA4305
:1023500002817047F0B502460020002400230025CA
:1023600001F00F070126BE40B4B20B1101269E40BA
:10237000B3B2968806EA03051689264016B10DB158
:10238000012000E00020F0BD10B5002201F00F0494
:102390000123A3409AB2D343038110BD10B5044674
:1023A000FE48844208D101210846FFF712FD0021B2
:1023B0000120FFF70EFD9DE0B4F1804F08D101210F
:1023C0000846FFF7F5FC00210120FFF7F1FC91E042
:1023D000F348844208D101210220FFF7E9FC0021E3
:1023E0000220FFF7E5FC85E0EE48844208D1012198
:1023F0000420FFF7DDFC00210420FFF7D9FC79E081
:10240000E948844208D101210820FFF7D1FC0021CE
:102410000820FFF7CDFC6DE0E448844208D101219B
:102420001020FFF7C5FC00211020FFF7C1FC61E080
:10243000DF48844208D101212020FFF7B9FC0021A8
:102440002020FFF7B5FC55E0DA48844208D101218D
:102450000220FFF7BEFC00210220FFF7BAFC49E092
:10246000D548844209D101210804FFF7B2FC0021BC
:102470004FF48030FFF7ADFC3CE0D048844209D1F6
:1024800001214804FFF7A5FC00214FF40030FFF7BD
:10249000A0FC2FE0CA48844209D101218804FFF73B
:1024A00098FC00214FF48020FFF793FC22E0C54800
:1024B000844208D101214020FFF77AFC002140200E
:1024C000FFF776FC16E0C048844208D10121802045
:1024D000FFF76EFC00218020FFF76AFC0AE0BB4892
:1024E000844207D101218015FFF762FC0021A0156D
:1024F000FFF75EFC10BD00220288A84B98420ED068
:10250000AC4B98420BD0B0F1804F08D0A44B98420E
:1025100005D0A44B984202D0A34B984204D14FF669
:102520008F731A404B881A43A04B984207D0A04B98
:10253000984204D04FF6FF431A400B891A43028099
:102540004B68C3620B880385944B984202D0994B29
:10255000984201D18B7A03860123838270474FF022
:10256000FF3141600021018001814180817270470B
:102570000185828270470A46002101884FF68F73D9
:10258000194011430180704741627047C162704732
:102590000146486A70470146088D704721B102889C
:1025A00042F00202028004E002884FF6FD731A40F6
:1025B0000280704721B1028842F00402028004E0E8
:1025C00002884FF6FB731A400280704721B10288DF
:1025D00042F08002028004E002884FF67F731A40C6
:1025E0000280704702884FF6F7731A400280028813
:1025F0000A430280704702884FF6FF431A40028068
:1026000002880A430280704721B1028842F0010229
:10261000028004E002884FF6FE731A400280704781
:1026200070B5002400220023058C4FF6FE7635405D
:102630000584028C8388048B4FF68F752C40B51E61
:102640002C400D882C43751E2A408D892A434D88C5
:102650002A43524DA84202D0564DA84213D14FF6FC
:10266000F7752A40CD892A434FF6FB752A408D889D
:102670002A434FF6FF652B404FF6FF552B400D8A3E
:102680002B434D8A2B43838004838D6845630284EA
:1026900070BD70B5002400220023058C4FF6EF7644
:1026A00035400584028C8388048B48F6FF752C40E6
:1026B0004FF6FF452C400D884FF6FF7606EA0525BC
:1026C0002C434FF6DF752A408D8906EA05152A430B
:1026D0004D8806EA05152A43304DA84202D0354DF3
:1026E000A8421DD14FF67F752A40CD894FF6FF765F
:1026F00006EA05152A434FF6BF752A408D8806EA7B
:1027000005152A434FF6FF352B404FF2FF752B403E
:102710000D8A06EA85052B434D8A06EA85052B437B
:10272000838004838D688563028470BD70B5002446
:1027300000220023058C4FF6FF6635400584028C8D
:102740008388848B4FF68F752C404FF6FC752C4098
:102750000D882C434FF6FF552A408D894FF6FF76A2
:1027600006EA05252A434D8806EA05252A430B4D2E
:10277000A84202D00F4DA84238D14FF2FF752A402F
:10278000CD894FF6FF7606EA05252A434FF6FF3539
:102790002A408D8806EA05252A4319E000000140F9
:1027A0000004004000080040000C00400010004001
:1027B000001400400004014000400140004401407A
:1027C0000048014000180040001C0040002000406C
:1027D0004EF6FF752B404DF6FF752B400D8A06EA2D
:1027E00005152B434D8A06EA05152B438380848308
:1027F0008D68C563028470BD70B50022002300247B
:10280000058C4EF6FF7635400584038C8488828BD8
:1028100048F6FF752A404FF6FF452A400D884FF6CF
:10282000FF7606EA05252A434DF6FF752B408D8974
:1028300006EA05352B434D8806EA05352B43FE4D48
:10284000A84202D0FD4DA84208D14BF6FF752C409E
:102850000D8A4FF6FF7606EA85152C438480828325
:102860008D680564038470BD0021018041808180F2
:1028700081608181C18101824182704770B50346C8
:10288000002000241846183001258D40ACB21D8C64
:10289000A5431D8409B108290AD100EB6100056830
:1028A0004FF68F76354005600568154305600FE0EB
:1028B0000D1FC5F34E052844056848F6FF763540E0
:1028C000056005684FF6FF7606EA02263543056087
:1028D00070BD4163704781637047C1637047016495
:1028E00070470A460021018B4FF68F731940114340
:1028F000018370470A460021018B48F6FF73194097
:102900004FF6FF7303EA02231943018370470A4617
:102910000021818B4FF68F731940114381837047DB
:102920000A460021818B48F6FF7319404FF6FF736A
:1029300003EA02231943818370470A460021018B71
:102940004FF6F77319401143018370470A4600217F
:10295000018B4FF2FF7319404FF6FF7303EA022316
:102960001943018370470A460021818B4FF6F773A4
:1029700019401143818370470A460021818B4FF231
:10298000FF7319404FF6FF7303EA02231943818353
:1029900070470A460021018B4FF6FB731940114323
:1029A000018370470A460021018B4FF6FF3319401F
:1029B0004FF6FF7303EA02231943018370470A4667
:1029C0000021818B4FF6FB731940114381837047BF
:1029D0000A460021818B4FF6FF3319404FF6FF73F3
:1029E00003EA02231943818370470A460021018BC1
:1029F0004FF67F7319401143018370470A46002147
:102A0000018BC1F30E014FF6FF7303EA0223194352
:102A1000018370470A460021818B4FF67F7319406E
:102A20001143818370470A460021818BC1F30E0157
:102A30004FF6FF7303EA02231943818370470A4666
:102A40000021018C4FF6FD7319401143018470473A
:102A50000A460021018C4FF6F77319401143018497
:102A600070470A460021018C4FF6DF7319404FF67C
:102A7000FF7303EA02131943018470470A460021D9
:102A8000018C4FF67F7319404FF6FF7303EA021370
:102A90001943018470470A460021018C4FF6FF5309
:102AA00019404FF6FF7303EA02231943018470476C
:102AB0000A460021018C4FF2FF7319404FF6FF7355
:102AC00003EA02231943018470470A460021018C5E
:102AD0004DF6FF7319404FF6FF7303EA02331943B3
:102AE0000184704730B5002301248C40A3B2048CCC
:102AF0009C430484048C02FA01F5ADB22C43048497
:102B000030BD30B5002304248C40A3B2048C9C4318
:102B10000484048C02FA01F5ADB22C43048430BD68
:102B2000828B4FF2FF331A408283828B4FF6FF7302
:102B300003EA01231A4382837047F0B50C46154619
:102B4000002100220026078C4EF6FF7C07EA0C07C6
:102B50000784818B028C4FF6FF7707EA043640F634
:102B6000FF4739404FF6FF7707EA052739434FF60D
:102B7000FF7707EA0337394345F6FF773A4046F4D3
:102B800080573A4381830284F0BD828B4FF6F37302
:102B90001A408283828B0A4382837047F0B50C46C9
:102BA0001546002100220026078C4FF6FF6C07EA2D
:102BB0000C070784818B028C4FF6FF7707EA042607
:102BC0004FF60C7739404FF6FF7707EA03172F438C
:102BD00039434FF2FF573A4046F480773A438183B6
:102BE0000284F0BD028B4FF2FF331A400283028B46
:102BF0004FF6FF7303EA01231A4302837047F0B5CF
:102C00000C461546002100220026078C4FF6EF7C6B
:102C100007EA0C070784018B028C4FF6FF7707EA5F
:102C2000041640F6FF4739404FF6FF7707EA0337AF
:102C300039434FF6FF7703E00000014000040140F4
:102C400007EA052739434FF65F773A4046F0100709
:102C50003A4301830284F0BD028B4FF6F3731A40AE
:102C60000283028B0A4302837047F0B50C46154677
:102C700000210022068C4FF6FE773E400684018B31
:102C8000028C4FF60C7631407E1C06EA03162E436A
:102C900031434FF6F576324044F00106324301836A
:102CA0000284F0BD70B505460C46208850B92389D2
:102CB000A28861882846FFF7D8FFE1882846FFF7F9
:102CC000CBFF25E0208804280AD12389A2886188C7
:102CD0002846FFF794FFE1882846FFF783FF17E0B7
:102CE000208808280AD12389A28861882846FFF70E
:102CF00055FFE1882846FFF748FF09E02389A288AD
:102D000061882846FFF719FFE1882846FFF708FF8A
:102D100070BD002101804180012181800021C1809E
:102D2000018170472DE9F04105460C460026012738
:102D3000608808B9022600E00026A088012801D199
:102D4000022700E001272088A0B92389A288618892
:102D50002846FFF78AFFE1882846FFF77DFF238991
:102D60003A4631462846FFF74AFFE1882846FFF7F2
:102D700039FF13E02389A28861882846FFF73FFFC7
:102D8000E1882846FFF72EFF23893A463146284638
:102D9000FFF76BFFE1882846FFF75EFFBDE8F08193
:102DA0000146486B70470146886B70470146C86B07
:102DB00070470146086C70470A884B881A438B8815
:102DC0001A43CB881A430B891A434B891A438B89C0
:102DD0001A43A0F84420704700210180418081807F
:102DE000C180018141818181704731B1B0F84420B7
:102DF00042F40042A0F8442005E0B0F84420C2F3B9
:102E00000E02A0F84420704721B1828842F00402EB
:102E1000828004E082884FF6FB731A4082807047FC
:102E200021B1828842F00102828004E082884FF65C
:102E3000FE731A40828070471AB183890B438381E5
:102E400002E083898B438381704781827047024609
:102E50000020138A0B400BB1012000E000207047D6
:102E6000CA430282704730B5024600200023002486
:102E7000158A05EA0103958905EA010413B10CB12D
:102E8000012000E0002030BDCA430282704741EAC1
:102E90000203A0F8483070471AB183890B4383813D
:102EA00002E083898B438381704721B1828842F09D
:102EB0000802828004E082884FF6F7731A4082800D
:102EC000704701894FF6F8721140018170470A4638
:102ED000002101894FF68F7319401143018170471A
:102EE00030B504460D4629462046FFF7F0FF2089FD
:102EF00040F00700208130BD2DE9F04104460D4629
:102F000016461F46602D06D13B460122314620461B
:102F1000FFF775FE05E03B46012231462046FFF7EC
:102F2000A4FE29462046FFF7D2FF208940F0070083
:102F30002081BDE8F08130B50C4600210189C9B27D
:102F40004FF6FF7505EA0325154325432943018103
:102F500030BD2DE9F04105460E461746984600243F
:102F600043463A4631462846FFF7E5FF2C894FF69F
:102F7000F870044044F007044FF68F70044044F0AA
:102F800070042C81BDE8F081F0B504460D4616466C
:102F90001F463B46324629462046FFF7CCFF208994
:102FA00040F480402081F0BD82884FF68F731A4034
:102FB000828082880A438280704702894FF6F873C4
:102FC0001A40028102890A430281704702894FF642
:102FD0007F731A40028102890A4302817047F0B56B
:102FE0000C4615461E460021002200230189028B53
:102FF000038C4FF6F877394021434FF6FC473A40AF
:1030000040F201173A434FF6DD773B404FF6FF772A
:1030100007EA06172F433B43018102830384F0BD77
:1030200021B1828842F08002828004E082884FF6DB
:103030007F731A4082807047A0F8501070470000DC
:1030400010B50446FA48844208D101211020FEF749
:10305000C0FE00211020FEF7BCFE57E0F548844278
:1030600009D101214804FEF7A3FE00214FF40030EE
:10307000FEF79EFE4AE0F048844209D1012188040F
:10308000FEF796FE00214FF48020FEF791FE3DE012
:10309000EA48844209D10121C804FEF789FE0021D3
:1030A0004FF40020FEF784FE30E0E548844209D169
:1030B00001210805FEF77CFE00214FF48010FEF789
:1030C00077FE23E0DF48844208D101212020FEF76B
:1030D00080FE00212020FEF77CFE17E0DA488442C3
:1030E00009D101218807FEF763FE00214FF08040DF
:1030F000FEF75EFE0AE0D548844207D10121400573
:10310000FEF756FE00216005FEF752FE10BD2DE9C8
:10311000FF4705460E460024A14600BFA046B089E1
:1031200000B100BF2C8A24F44054F08804432C8260
:10313000AC8941F20C608443B088318908437189BD
:1031400008430443AC81AC8A24F44074B08904433E
:10315000AC826846FEF7BDFCB548854202D0B9484E
:10316000854202D1DDF80C9001E0DDF80890A889D5
:1031700000F4004040B109EBC90000EB09103168D0
:103180004900B0FBF1F707E009EBC90000EB0910BB
:1031900031688900B0FBF1F76420B7FBF0F004015F
:1031A0002009642101FB1078A88900F4004040B197
:1031B000322000EBC800B0FBF1F000F00700044340
:1031C00008E0322000EB08106421B0FBF1F000F0C1
:1031D0000F0004432C81BDE8FF874FF416510160B6
:1031E00000218180C18001810C21418100218181E8
:1031F000704710B502460020108A20F470600B88DA
:103200004C8823438C882343CC8823431843108263
:1032100010BD0021018041808180C180704721B1B3
:10322000828942F40052828104E082894DF6FF7364
:103230001A4082817047028B02F47F420283028B24
:103240000A430283704721B1828942F4004282819D
:1032500003E08289C2F30E028281704721B1828A23
:1032600042F40062828204E0828A4FF2FF731A40C5
:1032700082827047C1F308028280704701468888C5
:10328000C0F308007047028A4FF6F0731A400282BA
:10329000028A0A430282704721B1828942F0020207
:1032A000828104E082894FF6FD731A408281704763
:1032B00082894FF2FF731A40828182890A43828198
:1032C0007047028A4FF6DF731A400282028A0A436D
:1032D0000282704721B1028A42F48042028204E0F5
:1032E000028A4BF6FF731A4002827047818941F0CF
:1032F00001018181704721B1828A42F008028282F5
:1033000004E0828A4FF6F7731A4082827047028B7C
:10331000D2B20283028B42EA01220283704721B1BA
:10332000828A42F02002828204E0828A4FF6DF73B2
:103330001A408282704721B1828A42F01002828252
:1033400004E0828A4FF6EF731A4082827047828AC5
:103350004FF6FB731A408282828A0A438282704748
:1033600021B1828A42F00202828204E0828A4FF610
:10337000FD731A40828270471AB1838A0B4383829D
:1033800002E0838A8B4383827047F0B503460024B2
:1033900000260025002040F66A17B94200D100BF80
:1033A0001846C1F3421401F01F06012707FA06F57B
:1033B000012C01D10C3004E0022C01D1103000E0CE
:1033C00014301AB107682F43076002E00768AF4363
:1033D0000760F0BD02460020B1F5007F00D100BFBC
:1033E00013880B400BB1012000E00020704701F46E
:1033F0000072B2F5007F00D100BFCA43028070475F
:1034000070B50246002400230025002040F66A160D
:10341000B14200D100BFC1F3421501F01F030126E4
:1034200006FA03F3012D13D19689334017E000000B
:10343000001001400044004000480040004C0040A3
:10344000005000400014014000780040007C004023
:10345000022D02D1168A334001E0968A33400C12C5
:10346000012606FA04F41688344013B10CB1012089
:1034700000E0002070BD10B50022002340F66A1461
:10348000A14200D100BF0A1201249440A3B2DC4340
:10349000048010BD10B504466FF00400FDF776FE01
:1034A000E11704EB5171C1F3C701394A117010469D
:1034B000007800EB4001C1EBC0104FF6FF7101EA4C
:1034C000C0003449088010BD0146314A12784A4391
:1034D0004FF0E0235A6100229A611A46126942F0C5
:1034E00001021A6100BF4FF0E022106900F00102F2
:1034F0001AB100F48032002AF5D04FF0E0221269B0
:1035000022F001024FF0E0231A6100229A61704715
:103510000146204A12884A434FF0E0235A610022B4
:103520009A611A46126942F001021A6100BF4FF017
:10353000E022106900F001021AB100F48032002A82
:10354000F5D04FF0E022126922F001024FF0E023A3
:103550001A6100229A61704770B504464FF40770F3
:1035600094FBF0F0C6B24FF4077094FBF0F100FB4F
:10357000114085B205E04FF40770FFF7C9FF701ED8
:10358000C6B2002EF7D115B12846FFF7C1FF70BDB6
:10359000640000206600002000B589B001210220EF
:1035A000FEF7B1FB40F6B730ADF818000020ADF8DB
:1035B0001A00532007900020ADF8200006A9A24869
:1035C000FEF799FF6020ADF804000120ADF8060079
:1035D0000220ADF8100001A99B48FFF721F808214F
:1035E0009948FFF7AAF901A99748FFF752F808216F
:1035F0009548FFF7ABF901A99348FFF797F8082121
:103600009148FFF7B0F901218F48FEF7DFFF002155
:103610008D48FFF75EF900218B48FFF75CF9002128
:103620008948FFF75AF901218748FEF7EDFF09B0F5
:1036300000BD1CB501210420FEF71CFB02208DF803
:10364000040000208DF806004FF4E0700090002088
:103650008DF8070003208DF8050069467B48FEF7CA
:103660006BF8022206217948FEF7F1F802220721C1
:103670007648FEF7ECF8022208217448FEF7E7F8D6
:10368000FFF78AFF1CBD10B5044640216F48FEF7C6
:10369000D1F880216D48FEF7CBF84FF480716B486C
:1036A000FEF7C6F821466848FFF713F9002166487F
:1036B000FFF711F900216448FFF70FF910BD10B5AD
:1036C000044640216148FEF7B3F880215F48FEF7C9
:1036D000AFF84FF480715D48FEF7ACF800215A480E
:1036E000FFF7F7F800215848FFF7F5F8214656484C
:1036F000FFF7F3F810BD10B5044640215348FEF71C
:1037000097F880215148FEF795F84FF480714F48A3
:10371000FEF78EF800214C48FFF7DBF821464A48B7
:10372000FFF7D9F800214848FFF7D7F810BD10B5CA
:10373000044640214548FEF77BF880214348FEF7C8
:1037400079F84FF480714148FEF774F800213E4843
:10375000FFF7BFF821463C48FFF7BDF821463A483D
:10376000FFF7BBF810BD10B5044640213748FEF7FF
:1037700061F880213548FEF75BF84FF480713348DB
:10378000FEF758F821463048FFF7A3F800212E48ED
:10379000FFF7A1F821462C48FFF79FF810BD10B5A0
:1037A000044640212948FEF745F880212748FEF7C6
:1037B00041F84FF480712548FEF73AF82146224837
:1037C000FFF787F821462048FFF785F800211E48BB
:1037D000FFF783F810BD10B5044640211B48FEF7E3
:1037E00029F880211948FEF725F84FF48071174811
:1037F000FEF720F821461448FFF76BF821461248DF
:10380000FFF769F821461048FFF767F810BD10B5BB
:1038100040210E48FEF70CF880210C48FEF708F80E
:103820004FF480710948FEF703F800210648FFF7BE
:1038300050F800210448FFF74EF800210248FFF736
:103840004CF810BD70470000000400400008024022
:103850001CB501210846FEF70DFA01208DF8040081
:1038600000208DF80600022000908DF8070000204F
:103870008DF8050069460848FDF75EFF1CBD10B5D0
:1038800002210548FDF7D4FF10BD10B50221024802
:10389000FDF7D0FF10BD0000000002401CB5012163
:1038A0000846FEF7E7F901208DF8040000208DF8A6
:1038B00006000420009002208DF8070000208DF8FB
:1038C000050069460748FDF737FF1CBD10B5042108
:1038D0000448FDF7AFFF10BD10B504210148FDF706
:1038E000A7FF10BD0000024000B587B04FF4A060F4
:1038F000FDF7FAFB01210846FEF7BCF9012108207B
:10390000FEF7B8F901211020FEF70EFA072209216F
:103910005048FDF79CFF07220A214E48FDF797FF0C
:1039200002208DF8180000208DF81A004FF4C060B6
:10393000059001208DF81B0002208DF8190005A9C3
:103940004448FDF7F9FE01208DF8180000208DF89D
:103950001A004FF48070059001208DF81B000320A1
:103960008DF8190005A93C48FDF7E6FE4FF480717B
:103970003948FDF75DFF4FF4E13001900020ADF8CC
:1039800010000C20ADF80E000020ADF80C00ADF8D2
:103990000A00ADF8080001A93048FFF7B8FB012183
:1039A0002E48FFF73CFC40212C48FFF720FD012268
:1039B00040F225512948FFF7E8FC25208DF800004A
:1039C00001208DF8030003208DF801008DF802001E
:1039D0006846FDF78EFB07B000BD10B504462146D2
:1039E0001E48FFF747FC00BF80211C48FFF7F2FC90
:1039F0000028F9D010BD70B50446002504E0605DD4
:103A0000FFF7EBFF681CC5B2605D0028F7D100BF6F
:103A100040211248FFF7DEFC0028F9D070BD00BF3E
:103A20000E4A128802F04002002AF9D0C2B20B4BB3
:103A30009A80704710B54FF480710748FDF7FAFE81
:103A40004FF49670FFF788FD4FF480710248FDF740
:103A5000EFFE10BD00000240000C024000100140CB
:103A600010B5044600BF0221F748FEF767FC0028A6
:103A7000F9D02146F448FEF718FC00BF0121F248B6
:103A8000FEF75CFC0028F9D0EF48FEF70BFCC0B253
:103A900010BD10B500240020EC4908609020FFF70D
:103AA000DFFF0020FFF7DCFF0020FFF7D9FF002039
:103AB000FFF7D6FFFF20FFF7D3FF44EA0024FF20E3
:103AC000FFF7CEFF04430120E149C1F88002204600
:103AD00010BD10B50446DC4800884FF6C771084099
:103AE000D949088008460088204308800121D6482B
:103AF000FEF75AFB10BD00B587B001210846FEF75E
:103B0000B9F801210803FEF70FF9382005900220CB
:103B10008DF8180000208DF81A0003208DF8190088
:103B200001208DF81B0005A9CA48FDF705FE0522F6
:103B30000321C848FDF78BFE05220421C548FDF787
:103B400086FE05221146C348FDF781FE01210803C8
:103B5000FEF73FF900214FF48050FEF73AF90020BC
:103B6000ADF800004FF48270ADF802000020ADF80F
:103B700004000220ADF806000120ADF80800400264
:103B8000ADF80A003820ADF80C000020ADF80E00AA
:103B90000720ADF810006946AB48FEF70BFA01218B
:103BA000A948FEF701FBFF20FFF75AFF07B000BD51
:103BB0001CB501210220FEF75DF8012000908DF870
:103BC000040000208DF8060003208DF80500012078
:103BD0008DF8070069469F48FDF7AEFD01209B491F
:103BE0000860FFF788FF0020FFF773FFFFF751FF22
:103BF000994908801CBD10B5002400209349086035
:103C00000520FFF72DFFFF20FFF72AFF04460120C4
:103C10008F49C1F88002204610BD10B5044600202F
:103C20008A4908600120FFF71BFF2046FFF718FFB5
:103C300001208749C1F8800210BD10B500208349DA
:103C400008600620FFF70CFF01208149C1F88002BF
:103C500010BD10B500207D4908600420FFF700FF6B
:103C600001207B49C1F8800210BD10B500BFFFF7ED
:103C7000C2FF00F001000028F9D110BD2DE9F0418C
:103C800006460C461746FFF7D8FF00206F4908602C
:103C90000220FFF7E5FEC4F30740FFF7E1FEC4F39F
:103CA0000720FFF7DDFEE0B2FFF7DAFE002504E0B3
:103CB000705DFFF7D5FE681C85B2BD42F8DB0120C0
:103CC00062490860FFF7D1FFBDE8F0812DE9F041BE
:103CD00007460E461446F0B2C0F58075AC4200DCD3
:103CE000254612E02A4631463846FFF7C7FFAC4268
:103CF00000D10BE02F442E44601B84B2B4F5807FCA
:103D000002DD4FF4807500E02546EBE700BFBDE81B
:103D1000F0812DE9F04106460C46174600204B493C
:103D200008600320FFF79CFEC4F30740FFF798FEEE
:103D3000C4F30720FFF794FEE0B2FFF791FE0025E1
:103D400005E0FF20FFF78CFE7055681C85B2BD4270
:103D5000F7DB01203D490860BDE8F08110B504465D
:103D60002403FFF76AFFFFF780FF00203749086050
:103D70002020FFF775FEC4F30740FFF771FEC4F380
:103D80000720FFF76DFEE0B2FFF76AFE0120304921
:103D9000C1F88002FFF769FF10BD2DE9F05F814691
:103DA0000F461646DFF8B4B04FEA1738C7F30B0AD0
:103DB000CAF58054A64200DC344644E04FEA08319C
:103DC0004FF480525846FFF7A4FF002508E00AEBA5
:103DD00005001BF80000FF2800D003E0681C85B236
:103DE000A542F4DB00BFA54216DA4046FFF7B6FF56
:103DF000002507E019F8050005EB0A010BF80100A2
:103E0000681C85B2A542F5DB4FEA08314FF48052B9
:103E10005846FFF75BFF04E0224639464846FFF765
:103E200055FFA64200D11BE008F101084FF0000A3F
:103E3000A1442744301B86B2B6F5805F02DD4FF403
:103E4000805400E03446B9E70030014080824042AF
:103E5000008040420004024068000020F50000207D
:103E600000BFBDE8F09F10B5FFF7E7FEFFF7FDFECE
:103E700000201F490860C720FFF7F2FD01201D49FF
:103E8000C1F88002FFF7F1FE10BD10B500201849FF
:103E90000860B920FFF7E4FD01201649C1F880024F
:103EA0000320FFF711FB10BD10B50020104908607A
:103EB000AB20FFF7D5FD01200E49C1F88002032099
:103EC000FFF702FB10BD10B50446012221460A4847
:103ED000FFF71FFF0848007810BD70B504460D4677
:103EE0000548057001222146FFF757FF70BD00000D
:103EF00080824042008040426A0000201FB54FF49B
:103F0000A060FDF7F1F801210220FDF7FCFE012180
:103F10000846FDF7F8FE41F28730029042F2CF00EA
:103F2000ADF804000020ADF80600ADF80C0001A9C2
:103F30001C48FEF7E0FA01A94FF08040FEF7DBFADB
:103F4000012211461748FEF777FF01211548FEF7B9
:103F50005BFB012211469007FEF76EFF01218807E7
:103F6000FEF752FB1D208DF8000001208DF80300A4
:103F700003208DF8020001208DF801006846FDF74E
:103F8000B8F81C208DF8000001208DF803000320F4
:103F90008DF8020001208DF801006846FDF7A9F8B0
:103FA0001FBD00000004004000B58DB04FF4A060BC
:103FB000FDF79AF801210846FDF75CFE0121080291
:103FC000FDF7B2FE09200B9003208DF83000002091
:103FD0008DF833000BA93C48FDF7AEFB0121080228
:103FE000FDF7F7FE00214FF48070FDF7F2FE002090
:103FF00007900A9009904FF48030089007A8FDF7C9
:104000001DF9002001908DF808008DF8090003903B
:10401000059002208DF8180001A92C48FDF7DFF863
:1040200001212A48FDF721F90DB000BD10B5044665
:104030000723012221462548FDF757F92348FDF7BC
:10404000B0F900BF02212148FDF7CCFA0028F9D0D1
:104050001E48FDF7E2F910BD2DE9F04107460C4678
:104060000025002600BF08E03846FFF7DFFF0544C3
:104070000520FFF771FA701CC6B2A642F4DBB5FB4F
:10408000F4F080B2BDE8F08110B54FF4A060FDF708
:104090002BF810BD10B504460723012221460B481A
:1040A000FDF723F90948FDF77CF900BF0221074815
:1040B000FDF798FA0028F9D00448FDF7AEF910BDD5
:1040C000024600207047000000000240002001402E
:1040D00010B501210420FDF7CDFD10BD1CB5012058
:1040E0008DF8040000208DF80600022000900120C9
:1040F0008DF8070002208DF8050069464E48FDF74F
:104100001BFB02214C48FDF793FB1CBD1CB5002096
:104110008DF804000220009000208DF80700022096
:104120008DF8050069464448FDF706FB0221424828
:10413000FDF77EFB1CBD10B502213F48FDF75EFB7D
:1041400010BD70B50025002418E000BFFFF7F3FF95
:104150000028FBD02820FFF7B7F9FFF7ECFF012874
:104160000AD100BFFFF7E7FF0128FBD0C4F1070128
:1041700001208840C0B20543601CC4B2082CE4DBB7
:10418000284670BD70B50446FFF7A8FF02212A48F3
:10419000FDF750FB44F62060FFF796F90221264810
:1041A000FDF746FB1E20FFF78FF9FFF7AFFFFFF784
:1041B000C2FF00283ED1002507E06D1C642D01D907
:1041C000002070BD0A20FFF77FF9FFF7B4FF002839
:1041D000F3D0002507E06D1C642D01D90020F0E725
:1041E0000A20FFF771F9FFF7A6FF0128F3D0FFF7C8
:1041F000A8FF2070FFF7A5FF6070FFF7A2FFA07077
:10420000FFF79FFFE070FFF79CFF2071FFF766FF4D
:1042100002210948FDF70CFB207861780844A17859
:104220000844E17808442179884201D10120C8E797
:104230000020C6E70020C4E70008024010B50024B3
:104240009048006820F003008E4908600846006826
:10425000086004E0601CC4B20120FFF735F98A4809
:10426000006808B1C82CF5DBC82C01DB012010BDAB
:10427000002404E0601CC4B20120FFF725F9824845
:10428000006808B9F02CF5DBF02C01DB0120EEE72B
:104290000020ECE710B57B48006820F00300794966
:1042A00008600846006840F0010008600020764978
:1042B0008031086040F2EE20FFF706F901207349D3
:1042C000C1F880020F20FFF7FFF810BD1CB50121D7
:1042D0000420FDF7CFFC012000908DF804000020A1
:1042E0008DF8060002208DF8050001208DF80700EA
:1042F00069466448FDF720FAFFF7CCFFFFF79EFF01
:104300001CBD10B55F48006820F003005D490860DF
:104310000846006840F00100086000205A498031DA
:1043200008600220FFF7D0F801205849C1F8800248
:104330005448006820F003005249086008460068AD
:1043400008600C20FFF7C0F84F48006808B101244E
:1043500000E000243220FFF7B7F8204610BD70B50A
:104360000026012508E0FFF7CCFF0446E00140EA03
:104370006600C6B2681CC5B2082DF4DD304670BDBB
:1043800070B504463F48006820F003003D490860CE
:104390000846006840F001000860012522E004F0B2
:1043A0000106641076B10020374980310860022090
:1043B000FFF78AF801203549C1F880023C20FFF759
:1043C00083F80DE000203049803108603C20FFF781
:1043D0007BF801202D49C1F880020220FFF774F814
:1043E000681CC5B2082DDADD70BD10B5FFF752FFAD
:1043F000FFF724FFCC20FFF7C3FF4420FFF7C0FFE7
:1044000010BD2DE9F0412DED048BFFF7EEFFFFF716
:1044100041FFFFF713FFCC20FFF7B2FFBE20FFF7ED
:10442000AFFFFFF79CFF0746FFF799FF0446072CF5
:1044300005DDE043C4B2F843C7B2002600E0012620
:104440002546280205B2E81905B2284600F038F9D9
:1044500041EC190B9FED0E0B53EC102B00F0BEF846
:1044600041EC180B00F03DF905B226B12846BDEC31
:10447000048BBDE8F081684200B2F8E770477047EE
:10448000704770470008024000024142000041426C
:10449000000000000000E43F1CB501210420FDF7EE
:1044A000E9FB01208DF8040000208DF80600302083
:1044B000009002208DF8070000208DF80500694665
:1044C0000D48FDF739F91CBD10B510210A48FDF75C
:1044D000B1F910BD10B510210748FDF7A9F910BDBD
:1044E00010B520210448FDF7A5F910BD10B5202115
:1044F0000148FDF79DF910BD000802401CB50121DF
:104500000820FDF7B7FB01208DF8040000208DF88E
:1045100006000F20009002208DF8070000208DF883
:10452000050069461948FDF707F91CBD10B50121C2
:104530001648FDF77DF910BD10B501211348FDF7B0
:1045400079F910BD10B502211048FDF771F910BDC1
:1045500010B502210D48FDF76DF910BD10B504210D
:104560000A48FDF765F910BD10B504210748FDF7AD
:1045700061F910BD10B508210448FDF759F910BDC7
:1045800010B508210148FDF755F910BD000C024097
:104590001CB501210820FDF76DFB01208DF80400FA
:1045A00000208DF806001020009002208DF80700F2
:1045B00000208DF8050069460748FDF7BDF81CBDD1
:1045C00010B510210448FDF733F910BD10B51021C6
:1045D0000148FDF72FF910BD000C02402DE9FE4FF8
:1045E00081EA030404F0004421F0004100944FF0FC
:1045F000000B23F0004350EA01045ED052EA0304AA
:104600005BD0C3F30A54C1F30A552C44A4F2F3342B
:104610000194A0FB0254C1F3130141F48011C3F3D0
:10462000130343F4801301FB024400FB034E840A8E
:10463000970A44EA815447EA8357A4FB0768029526
:104640008D0A05FB07854FEA932C04FB0C542705C4
:10465000029D4FEA065847EA1637B5EB08056EEBA0
:10466000070C870E920E47EA811742EA8312A7FBD6
:104670000201B6EB0B0164EB00042B0D43EA0C3393
:104680005E1844EB1C50DA465146E7FB0201C5F3C5
:1046900013044FEA0B3343EA14534FEA0432019CEC
:1046A00043EA0603A4F10C040294009CCDE900B493
:1046B00000F06BF803B0BDE8F08F00200146F9E789
:1046C0000EB5C10F80EAE0700844CA07002140F22D
:1046D00033438DE80E000A460B4600F056F803B04F
:1046E00000BD70B5C1F30A5201F000450024C1F3CA
:1046F000130140F2FF3341F480119A4201DA0020A5
:1047000070BD40F233439A42A2F2334203DC52427C
:1047100000F01CF800E090402C43F1D0404270BD06
:1047200030B50B46014600202022012409E021FA81
:1047300002F59D4205D303FA02F5491B04FA02F57E
:104740002844151EA2F10102F1DC30BD202A04DB51
:10475000203A21FA02F00021704721FA02F3D040FA
:10476000C2F12002914008431946704710B5141E4B
:1047700073F1000408DA401C41F1000192185B411A
:104780001A4301D120F0010010BD2DE9F04D9246F1
:104790009B4611B1B1FA81F202E0B0FA80F2203208
:1047A000904600F053F804460F4640EA0A0041EAFA
:1047B0000B0153465A46084313D0114653EA0100F1
:1047C00019D0C8F140025046FFF7C0FF05460E461B
:1047D00050465946424600F039F8084305D00120BA
:1047E00004E020463946BDE8F08D0020054346EA46
:1047F000E0762C4337430A986305E40AA0EB0800EF
:104800000022FD0A44EA47540A3002D5002001463E
:10481000E9E7010510196941DDE908450019694119
:10482000BDE8F04DA2E70000064C074D06E0E06849
:1048300040F0010394E8070098471034AC42F6D3E7
:10484000FBF7A6FC004A0008204A0008202A04DBE7
:10485000203A00FA02F1002070479140C2F1200393
:1048600020FA03F319439040704700000FB4054B42
:1048700010B503A9044A029800F018F810BC5DF8BE
:1048800014FB00001F3A00086C00002002E008C87A
:10489000121F08C1002AFAD170477047002001E0BA
:1048A00001C1121F002AFBD1704700002DE9FF4F04
:1048B00089B09B460446002506E025280BD05A46C1
:1048C0000B999047641C6D1C20780028F5D10DB021
:1048D0002846BDE8F08F0027B8460122474900E08E
:1048E000074314F8013F203B02FA03F00842F7D1D6
:1048F00020782E2819D114F8010F47F004072A2830
:104900000ED06FF02F022078A0F1300109290CD8C9
:1049100008EB880102EB410100EB0108641CF2E79F
:104920000A98641C50F8048B0A9020780028CED096
:10493000642808D0692806D075281ED05A460B99DD
:1049400090476D1C58E00A994FF00A0901C90A9175
:10495000002802DA40422D2102E0390504D52B213E
:104960008DF82010012103E0F90704D02021F7E79A
:104970008A4608AE0DE00021FAE70A994FF00A09CD
:1049800001C90A91F7E74946FFF7CAFE303106F838
:10499000011D0028F7D1ADEB060000F120097807D2
:1049A00001D44FF00108C84502DDA8EB090000E082
:1049B00000208046002706E008A85A46C05D0B99F3
:1049C00090476D1C7F1C5745F6DB04E030205A46AB
:1049D0000B9990476D1CB8F10001A8F10108F5DCB6
:1049E00005E016F8010B5A460B9990476D1CB9F17A
:1049F0000001A9F10109F4DC641C65E70928010044
:104A0000204A000800000020700000008C480008C8
:104A1000904A000870000020881400009C4800089C
:104A20000000000000000000000000000000000086
:104A30000000000000000000000000000000000076
:104A40000000000000000000000000000000000066
:104A50000500000000000000000000000000000051
:104A6000007A030A000000000000000001020304B5
:104A70000607080900000000010203040102030404
:104A8000060708090000000014EF00000000000005
:040000050800018965
:00000001FF
