:020000040800F2
:10000000300400208D04000861020008630200082B
:10001000670200086B0200086F0200080000000081
:100020000000000000000000000000007302000853
:10003000750200080000000077020008790200083D
:10004000A7040008A7040008A7040008A7040008E4
:10005000A7040008A7040008A7040008A7040008D4
:10006000A7040008A7040008A7040008A7040008C4
:10007000A7040008A7040008A7040008A7040008B4
:10008000A7040008A7040008A7040008A7040008A4
:10009000A7040008A7040008A7040008A704000894
:1000A000A7040008A7040008A7040008A704000884
:1000B000A70400080B020008A7040008A704000812
:1000C000A7040008A7040008A7040008A704000864
:1000D000A7040008ED010008A7040008A704000811
:1000E000A7040008A7040008A7040008A704000844
:1000F000A7040008A7040008A7040008A704000834
:10010000A7040008A7040008A7040008A704000823
:10011000A7040008A7040008A7040008A704000813
:10012000A7040008A7040008A7040008A704000803
:10013000A7040008A7040008A7040008A7040008F3
:10014000A7040008A7040008A7040008A7040008E3
:10015000A7040008A7040008A7040008A7040008D3
:10016000A7040008A7040008A7040008A7040008C3
:10017000A7040008A7040008A7040008A7040008B3
:10018000A7040008A7040008DFF80CD002F0E0FA8A
:10019000004800479D010008300400204FF4A06093
:1001A00000F086F902F09CF9A82002F017F902F09D
:1001B00025FA4FF4967002F073F916E04FF4FA70D6
:1001C00002F06EF90521084602F070FA164908801F
:1001D0000521032002F06AFA1449088008460288C3
:1001E0001148018812A002F0C5FAE7E710B540F205
:1001F0002551154802F0A8F830B1134801F0E2FF8C
:10020000C4B2204602F0C9F910BD10B501210F4853
:1002100001F0CDFD012806D10DA002F0ABFA0121BD
:100220000A4801F0D5FD10BD0000002002000020AA
:10023000414431203D3E202564202C414432203D64
:100240003E2025640D0A000000100140000400401B
:10025000B6A8CAB1D6D0B6CFA3A1200D0A0000001F
:10026000704700BFFEE700BFFEE700BFFEE700BF2C
:10027000FEE7704770477047704700000CB50020DC
:10028000019000907648006840F48030744908601E
:1002900000BF7348006800F4003000900198401CD3
:1002A0000190009818B90198B0F5A04FF1D16C48B1
:1002B000006800F4003010B10120009001E000203F
:1002C00000900098012846D165484030006840F011
:1002D00080506349403108606248006840F4404003
:1002E000604908605E48083000685D490831086070
:1002F0000846006840F4004008600846006840F482
:10030000A05008605848091F0860081F006840F0A6
:100310008070091F086000BF5148006800F000703D
:100320000028F9D040F20570504908604C48083068
:10033000006820F003004A49083108600846006858
:1003400040F00200086000BF45480830006800F037
:100350000C000828F8D10CBD10B54548006840F4E1
:100360007000434908603E48006840F001003C4985
:10037000086000203A4908310860394800683D4962
:100380000840374908603C48091D0860081F00689C
:1003900020F48020091F0860002031490C310860DA
:1003A000FFF76CFF4FF0006031498039086010BDE5
:1003B00070B500200022022300240221284D0835B8
:1003C0002D6805F00C0020B1042806D0082834D18F
:1003D00007E02A4D2A4E356033E02A4D284E35601D
:1003E0002FE01F4D2D1D2D68C5F380541C4D2D1D74
:1003F0002D6805F03F0154B1224DB5FBF1F5184EC3
:10040000361D3668C6F3881605FB06F209E01B4D5B
:10041000B5FBF1F5124E361D3668C6F3881605FB9E
:1004200006F20F4D2D1D2D68C5F301456D1C6B00A7
:10043000B2FBF3F5124E356003E0104D104E3560FF
:1004400000BF00BF064D08352D68C5F303150E4EDD
:10045000705D0B4D2D68C540094E356070BD0000C4
:10046000003802400070004008544007003C024041
:1004700088ED00E0FFFFF6FE103000240024F400B9
:100480000400002000127A0008000020064880477F
:1004900006480047FEE7FEE7FEE7FEE7FEE7FEE769
:1004A000FEE7FEE7FEE7FEE75903000889010008C2
:1004B00032490143324A1160704770B50021002370
:1004C0000F22C4781CB32E4C246804F4E064C4F5F5
:1004D000E064C4F30721C1F10404E3B20A414478A3
:1004E0009C40E1B28478144021430C07210E254C36
:1004F00005786155047804F01F050124AC400578A7
:100500006D11AD0005F1E025C5F8004109E0047862
:1005100004F01F050124AC401B4D0678761145F808
:10052000264070BD194A0A400243154B1B1F1A6032
:10053000704739B1124A121D12680243104B1B1D3D
:100540001A6006E00E4A121D126882430C4B1B1DF6
:100550001A607047042808D14FF0E021096941F082
:1005600004014FF0E022116107E04FF0E02109693A
:1005700021F004014FF0E022116170470000FA05FC
:100580000CED00E000E400E080E100E080FFFF1FF0
:1005900010B50121080200F000FE00214FF4807028
:1005A00000F0FBFD10BD30B502460020002350686E
:1005B000F84C20400D790C6844EA05242043506033
:1005C0009068F54C2040D1E903542C438D682C43AE
:1005D0004D7944EA450420439060D06A20F47000CD
:1005E0000C7D641EE4B2234340EA0350D06230BD68
:1005F00000210160017141718160C16001610121CF
:10060000017570470021E54A1168E54A1140D0E9BB
:1006100000231A4383681A43C3681A431143E14A0B
:10062000C2F8041370470021016041608160C1601D
:10063000704721B1826842F00102826003E0826863
:1006400022F00102826070470A4600214168D64BC1
:1006500019401143416070474162826270470A4607
:100660000021416821F01F0111434160704738B1FA
:10067000CA49096841F40001CA4AC2F8041306E0F5
:10068000C649096821F40001C64AC2F8041370473C
:1006900038B1C249096841F48001C24AC2F8041362
:1006A00006E0BE49096821F48001BE4AC2F804137D
:1006B0007047F0B504460D4600200021092D11DDDC
:1006C000E068A5F10A0606EB4607072606FA07F1D9
:1006D0008843A5F10A0606EB460603FA06F108432D
:1006E000E0600CE0206905EB4507072606FA07F1F4
:1006F000884305EB450603FA06F108432061072A03
:100700000FDA606B561E06EB86071F2606FA07F106
:100710008843561E06EB860605FA06F10843606319
:1007200022E00D2A0FDA206BD61F06EB86071F2664
:1007300006FA07F18843D61F06EB860605FA06F18E
:100740000843206310E0E06AA2F10D0606EB86077D
:100750001F2606FA07F18843A2F10D0606EB86066E
:1007600005FA06F10843E062F0BD816841F080417E
:1007700081607047014600208A6802F080420AB119
:10078000012000E00020704721B1826842F48062BD
:10079000826003E0826822F480628260704721B147
:1007A000826842F00202826003E0826822F0020264
:1007B0008260704710B50A4600210023416821F489
:1007C0006041531E41EA4331416010BD21B142688E
:1007D00042F40062426003E0426822F40062426038
:1007E00070470146C86C80B270476C48001D0068B5
:1007F000704721B1826842F48072826003E08268AF
:1008000022F480728260704721B1826842F40072E3
:10081000826003E0826822F400728260704738B11F
:100820005E49096841F400515E4AC2F8041306E0CB
:100830005A49096821F400515A4AC2F80413704712
:10084000F0B504461546002000220026092911DDD6
:10085000E068A1F10A0707EB470C072707FA0CF23B
:100860009043A1F10A0707EB470703FA07F2104389
:10087000E0600CE0206901EB410C072707FA0CF25D
:10088000904301EB410703FA07F210432061A06B8C
:10089000C0F30156EF1C06F1010CA7EB0C0707EBA8
:1008A000870C1F2707FA0CF29043EF1C06F1010C8E
:1008B000A7EB0C0707EB870701FA07F21043A063C9
:1008C000F0BD10B50A4600210023816B21F44011D0
:1008D000531E41EA0351816310BD08B50023009304
:1008E0000090009B0B440093009B1A6008BD0A46D1
:1008F0000021816821F470211143816070470A460C
:100900000021816821F440111143816070478168A2
:1009100041F4800181607047014600208A6802F43A
:1009200080020AB1012000E00020704721B1426836
:1009300042F48062426003E0426822F480624260D6
:10094000704721B1426842F48052426003E042683D
:1009500022F480524260704708B5024600200090A1
:10096000009201F12800009B184400900098006854
:1009700080B208BD10B50B460021D9B2012404FA9B
:1009800001F11AB144680C43446002E044688C43AE
:10099000446010BDFFFEFFFCFDF7FFC004230140D3
:1009A000E030FCFF00200140FFFD3FFF0246002039
:1009B00013680B400BB1012000E000207047CA43D0
:1009C0000260704770B502460020002300240B121D
:1009D000556801268E4005EA060415681D4015B1CC
:1009E0000CB1012000E0002070BD00220A12D343A8
:1009F0000360704710B504469848844208D101212D
:100A0000084600F086FB0021012000F082FB76E022
:100A10009348844208D10121022000F07AFB002192
:100A2000022000F076FB6AE08E48844208D1012162
:100A3000042000F06EFB0021042000F06AFB5EE061
:100A40008948844208D10121082000F062FB00217E
:100A5000082000F05EFB52E08448844208D1012166
:100A6000102000F056FB0021102000F052FB46E061
:100A70007F48844208D10121202000F04AFB002158
:100A8000202000F046FB3AE07A48844208D1012158
:100A9000402000F03EFB0021402000F03AFB2EE019
:100AA0007548844208D10121802000F032FB0021EA
:100AB000802000F02EFB22E07048844208D1012102
:100AC000801500F026FB0021A01500F022FB16E0A7
:100AD0006B48844208D10121401500F01AFB002127
:100AE000601500F016FB0AE06648844207D1012138
:100AF000001500F00EFB0021201500F00AFB10BDD0
:100B0000F0B50A4600210023002400BF3DE0012586
:100B100005FA01F3156805EA03049C4234D105681F
:100B20004F000326BE40B543056015794E00B54021
:100B30000668354305601579012D02D01579022D1F
:100B400016D185684F000326BE40B54385605579B0
:100B50004E00B540866835438560456801268E4065
:100B6000B5434560456896798E40B6B235434560D9
:100B7000C5684F000326BE40B543C560D5794E0019
:100B8000B540C6683543C560491C1029BFD3F0BDC8
:100B90004FF6FF7101600021017141718171C171D6
:100BA000704708B54FF480320092009A0A430092D1
:100BB000009AC261C161009AC261C2690092C269B1
:100BC000009208BD0246002013690B400BB10120C2
:100BD00000E0002070470146086980B27047024675
:100BE000002053690B400BB1012000E0002070474A
:100BF0000146486980B2704701837047418370475E
:100C00000AB1018300E04183704741617047426946
:100C10004A4042617047F0B5002300244D07ED0EB5
:100C200002FA05F3CE1000F1200555F826504E07C4
:100C3000F70E0F26BE40B543CF1000F1200646F850
:100C40002750CE1000F1200555F8265045EA030440
:100C5000CE1000F1200545F82640F0BD000002400E
:100C60000004024000080240000C02400010024054
:100C70000014024000180240001C02400020024004
:100C80000024024000280240F948006840F00100BA
:100C9000F74908600020F64908310860F448006808
:100CA000F4490840F2490860F348091D0860F34818
:100CB000EF4984310860F0481038091D0860EC489D
:100CC000006820F48020EA4908600020E8490C31DF
:100CD0000860E7498C31086070470021E44A921CA3
:100CE000117011460870704710B5014600220023AC
:100CF00000204A11012A02D1DD4C236808E0022AB3
:100D000003D1DB4C7034236802E0D94C743423687F
:100D100001F01F02012494401C400CB1012000E0AE
:100D2000002010BD38B5002000900024002500BF31
:100D30003120FFF7D9FF05460098401C009000982D
:100D4000B0F5A04F01D0002DF2D03120FFF7CCFF3D
:100D500008B1012400E00024204638BD01460020EF
:100D6000C34A106820F0F80040EAC10010607047E4
:100D7000C349086070470021BD4A7032117011707C
:100D8000012802D004280AD104E00121B84A7032B7
:100D9000117005E00521B64A7032117000E000BF05
:100DA00000BF7047B7490860704770B5049C41EABE
:100DB00082150126C6EB530645EA0645054345EA7A
:100DC0000465AB4E361D356070BDAD490866704791
:100DD000820142EA0172A64B84331A607047A84927
:100DE0008866704710B5830143EA016343EA0273E2
:100DF0009F4C8834236010BDA14908677047A04903
:100E0000C864704702460020994B0833186820F0E8
:100E1000EC6042EA01031843954B083318607047B1
:100E200002460020924B0833186820F0784042EACE
:100E3000010318438E4B08331860704701460020A9
:100E40008B4A0832106820F0030008431060704796
:100E500087480830006800F00C0070470146002009
:100E6000834A0832106820F0F00008431060704791
:100E7000014600207E4A0832106820F4E050084302
:100E80001060704701460020794A0832106820F44B
:100E9000604040EAC10010607047F0B500210022B8
:100EA0000024022500260223714F08373F6807F00F
:100EB0000C0121B1042905D0082937D105E0724F72
:100EC000076036E0714F076033E0694F3F1D3F68B0
:100ED000C7F38056664F3F1D3F6807F03F036EB172
:100EE0006A4FB7FBF3F7DFF888C10CF1040CDCF8AC
:100EF00000C0CCF3881C07FB0CF40CE0624FB7FB7E
:100F0000F3F7DFF86CC10CF1040CDCF800C0CCF393
:100F1000881C07FB0CF4564F3F1D3F68C7F3014781
:100F20007F1C7D00B4FBF5F7076002E0564F0760B9
:100F300000BF00BF4E4F08373F6807F0F0010909B6
:100F4000534F7A5C0768D7404760494F08373F687E
:100F500007F4E051890A4E4F7A5C4768D7408760B2
:100F6000434F08373F6807F46041490B484F7A5CAC
:100F70004768D740C760F0BD002100F44072B2F569
:100F8000407F0AD13A4A0832116821F4F811414AE7
:100F900002401143364A08321160354A70321268F5
:100FA000C0F30B031A43324B70331A607047354954
:100FB0004439086070473349403908607047364902
:100FC0000860704701460020294A8C32106820F0E2
:100FD0001F004A1E1043264A8C321060704701469B
:100FE0000020234A8C32106820F4F8504A1E40EA50
:100FF00002201F4A8C3210607047014600201C4AB4
:101000008C32106820F4401008431060704701468D
:101010000020174A8C32106820F44000084310600A
:10102000704701460020124A8C32106820F440308C
:1010300008431060704719490860704739B10C4A7D
:101040003032126802430A4B30331A6006E0084A15
:10105000303212688243064B30331A607047F9B160
:10106000034A343212680243014B34331A601CE0E5
:1010700000380240FFFFF6EA103000240030002064
:1010800000004742800E47420024F40000127A001C
:1010900018000020FFFCFF0F5C014742E0114742AF
:1010A0008F4A126882438E4B1A60704739B18C4A5E
:1010B000121D126802438A4B1B1D1A6006E0884A03
:1010C000121D12688243864B1B1D1A60704739B18E
:1010D000834A0C3212680243814B0C331A6006E0DB
:1010E0007F4A0C32126882437D4B0C331A60704782
:1010F00039B17B4A103212680243794B10331A60BF
:1011000006E0774A103212688243754B10331A603A
:10111000704739B1724A243A12680243704B243B3B
:101120001A6006E06E4A243A126882436C4B243BF4
:101130001A60704739B16A4A203A12680243684B14
:10114000203B1A6006E0664A203A12688243644BEC
:10115000203B1A60704739B1614A1C3A1268024359
:101160005F4B1C3B1A6006E05D4A1C3A12688243E2
:101170005B4B1C3B1A60704739B1594A143A1268EC
:101180000243574B143B1A6006E0554A143A126862
:101190008243534B143B1A60704739B1504A103A9E
:1011A000126802434E4B103B1A6006E04C4A103A5C
:1011B000126882434A4B103B1A60704739B1484A63
:1011C0001C3212680243464B1C331A6006E0444A44
:1011D0001C3212688243424B1C331A60704739B18B
:1011E0003F4A2032126802433D4B20331A6006E02A
:1011F0003B4A203212688243394B20331A607047D1
:1012000039B1374A243212680243354B24331A600D
:1012100006E0334A243212688243314B24331A6089
:10122000704739B12E4A2C32126802432C4B2C33B2
:101230001A6006E02A4A2C3212688243284B2C336B
:101240001A60704739B1264A303212680243244B83
:1012500030331A6006E0224A303212688243204B53
:1012600030331A607047012808D11D493C310968A4
:1012700041F008011A4A3C32116007E018493C313C
:10128000096821F00801164A3C321160704739B1F3
:10129000134A273A12780243114B273B1A7006E093
:1012A0000F4A273A127882430D4B273B1A7070473A
:1012B0000B484030006840F08070094940310860B8
:1012C000704701460020064A283A12680A400AB1CF
:1012D000012000E00020704701492639087070475E
:1012E0003438024010B50446FE48844208D101213A
:1012F0000846FFF752FF00210120FFF74EFF9DE057
:10130000B4F1804F08D101210846FFF735FF0021D5
:101310000120FFF731FF91E0F348844208D1012119
:101320000220FFF729FF00210220FFF725FF85E0BB
:10133000EE48844208D101210420FFF71DFF00215F
:101340000420FFF719FF79E0E948844208D1012120
:101350000820FFF711FF00210820FFF70DFF6DE0C7
:10136000E448844208D101211020FFF705FF002145
:101370001020FFF701FF61E0DF48844208D101211E
:101380002020FFF7F9FE00212020FFF7F5FE55E0B1
:10139000DA48844208D101210220FFF7FEFE002135
:1013A0000220FFF7FAFE49E0D548844209D1012125
:1013B0000804FFF7F2FE00214FF48030FFF7EDFE46
:1013C0003CE0D048844209D101214804FFF7E5FE02
:1013D00000214FF40030FFF7E0FE2FE0CA488442BE
:1013E00009D101218804FFF7D8FE00214FF48020A5
:1013F000FFF7D3FE22E0C548844208D101214020F6
:10140000FFF7BAFE00214020FFF7B6FE16E0C04805
:10141000844208D101218020FFF7AEFE0021802008
:10142000FFF7AAFE0AE0BB48844207D101218015DC
:10143000FFF7A2FE0021A015FFF79EFE10BD0022BF
:101440000288A84B98420ED0AC4B98420BD0B0F11A
:10145000804F08D0A44B984205D0A44B984202D0AC
:10146000A34B984204D14FF68F731A404B881A430E
:10147000A04B984207D0A04B984204D04FF6FF43B0
:101480001A400B891A4302804B68C3620B8803859C
:10149000944B984202D0994B984201D18B7A0386A3
:1014A0000123838270474FF0FF31416000210180AA
:1014B00001814180817270470185828270470A46AE
:1014C000002101884FF68F73194011430180704746
:1014D00041627047C16270470146486A70470146E1
:1014E000088D704721B1028842F00202028004E0B8
:1014F00002884FF6FD731A400280704721B10288BE
:1015000042F00402028004E002884FF6FB731A40A6
:101510000280704721B1028842F08002028004E01C
:1015200002884FF67F731A400280704702884FF698
:10153000F7731A40028002880A43028070470288CB
:101540004FF6FF431A40028002880A430280704728
:1015500021B1028842F00102028004E002884FF6C5
:10156000FE731A400280704770B5002400220023E9
:10157000058C4FF6FE7635400584028C8388048BFB
:101580004FF68F752C40B51E2C400D882C43751ED0
:101590002A408D892A434D882A43524DA84202D0C1
:1015A000564DA84213D14FF6F7752A40CD892A43EC
:1015B0004FF6FB752A408D882A434FF6FF652B4076
:1015C0004FF6FF552B400D8A2B434D8A2B438380CA
:1015D00004838D684563028470BD70B500240022C9
:1015E0000023058C4FF6EF7635400584028C838806
:1015F000048B48F6FF752C404FF6FF452C400D88B4
:101600004FF6FF7606EA05252C434FF6DF752A4094
:101610008D8906EA05152A434D8806EA05152A43F1
:10162000304DA84202D0354DA8421DD14FF67F75EE
:101630002A40CD894FF6FF7606EA05152A434FF674
:10164000BF752A408D8806EA05152A434FF6FF35F7
:101650002B404FF2FF752B400D8A06EA85052B4380
:101660004D8A06EA85052B43838004838D68856354
:10167000028470BD70B5002400220023058C4FF653
:10168000FF6635400584028C8388848B4FF68F7506
:101690002C404FF6FC752C400D882C434FF6FF551F
:1016A0002A408D894FF6FF7606EA05252A434D88A4
:1016B00006EA05252A430B4DA84202D00F4DA84249
:1016C00038D14FF2FF752A40CD894FF6FF7606EAF2
:1016D00005252A434FF6FF352A408D8806EA052561
:1016E0002A4319E0000001400004004000080040C7
:1016F000000C0040001000400014004000040140B5
:1017000000400140004401400048014000180040F2
:10171000001C0040002000404EF6FF752B404DF6A7
:10172000FF752B400D8A06EA05152B434D8A06EA04
:1017300005152B43838084838D68C563028470BD47
:1017400070B5002200230024058C4EF6FF7635404C
:101750000584038C8488828B48F6FF752A404FF6F7
:10176000FF452A400D884FF6FF7606EA05252A43F5
:101770004DF6FF752B408D8906EA05352B434D88C4
:1017800006EA05352B43FE4DA84202D0FD4DA84286
:1017900008D14BF6FF752C400D8A4FF6FF7606EA0E
:1017A00085152C43848082838D680564038470BD15
:1017B000002101804180818081608181C18101821D
:1017C0004182704770B50346002000241846183047
:1017D00001258D40ACB21D8CA5431D8409B108299B
:1017E0000AD100EB610005684FF68F763540056041
:1017F0000568154305600FE00D1FC5F34E0528442D
:10180000056848F6FF763540056005684FF6FF76B7
:1018100006EA02263543056070BD41637047816367
:101820007047C1637047016470470A460021018B0D
:101830004FF68F7319401143018370470A46002108
:10184000018B48F6FF7319404FF6FF7303EA02233A
:101850001943018370470A460021818B4FF68F732D
:1018600019401143818370470A460021818B48F655
:10187000FF7319404FF6FF7303EA02231943818374
:1018800070470A460021018B4FF6F7731940114348
:10189000018370470A460021018B4FF2FF73194004
:1018A0004FF6FF7303EA02231943018370470A4688
:1018B0000021818B4FF6F7731940114381837047E4
:1018C0000A460021818B4FF2FF7319404FF6FF73D8
:1018D00003EA02231943818370470A460021018BE2
:1018E0004FF6FB7319401143018370470A460021EC
:1018F000018B4FF6FF3319404FF6FF7303EA0223C3
:101900001943018370470A460021818B4FF6FB7310
:1019100019401143818370470A460021818B4FF69D
:10192000FF3319404FF6FF7303EA02231943818303
:1019300070470A460021018B4FF67F73194011430F
:10194000018370470A460021018BC1F30E014FF657
:10195000FF7303EA02231943018370470A460021FB
:10196000818B4FF67F7319401143818370470A467C
:101970000021818BC1F30E014FF6FF7303EA0223AE
:101980001943818370470A460021018C4FF6FD738D
:1019900019401143018470470A460021018C4FF61B
:1019A000F77319401143018470470A460021018CE6
:1019B0004FF6DF7319404FF6FF7303EA0213194322
:1019C000018470470A460021018C4FF67F7319404D
:1019D0004FF6FF7303EA02131943018470470A4666
:1019E0000021018C4FF6FF5319404FF6FF7303EAB5
:1019F00002231943018470470A460021018C4FF2EB
:101A0000FF7319404FF6FF7303EA02231943018461
:101A100070470A460021018C4DF6FF7319404FF6BE
:101A2000FF7303EA023319430184704730B5002382
:101A300001248C40A3B2048C9C430484048C02FADD
:101A400001F5ADB22C43048430BD30B5002304242D
:101A50008C40A3B2048C9C430484048C02FA01F5EC
:101A6000ADB22C43048430BD828B4FF2FF331A4059
:101A70008283828B4FF6FF7303EA01231A4382832A
:101A80007047F0B50C461546002100220026078C51
:101A90004EF6FF7C07EA0C070784818B028C4FF619
:101AA000FF7707EA043640F6FF4739404FF6FF77E5
:101AB00007EA052739434FF6FF7707EA033739432B
:101AC00045F6FF773A4046F480573A4381830284D3
:101AD000F0BD828B4FF6F3731A408283828B0A43E8
:101AE00082837047F0B50C4615460021002200267F
:101AF000078C4FF6FF6C07EA0C070784818B028C7A
:101B00004FF6FF7707EA04264FF60C7739404FF679
:101B1000FF7707EA03172F4339434FF2FF573A4045
:101B200046F480773A4381830284F0BD028B4FF202
:101B3000FF331A400283028B4FF6FF7303EA01233F
:101B40001A4302837047F0B50C4615460021002267
:101B50000026078C4FF6EF7C07EA0C070784018B01
:101B6000028C4FF6FF7707EA041640F6FF4739402C
:101B70004FF6FF7707EA033739434FF6FF7703E065
:101B8000000001400004014007EA052739434FF6F1
:101B90005F773A4046F010073A4301830284F0BD74
:101BA000028B4FF6F3731A400283028B0A430283BF
:101BB0007047F0B50C46154600210022068C4FF602
:101BC000FE773E400684018B028C4FF60C76314046
:101BD0007E1C06EA03162E4331434FF6F57632405B
:101BE00044F00106324301830284F0BD70B505461E
:101BF0000C46208850B92389A28861882846FFF7BF
:101C0000D8FFE1882846FFF7CBFF25E0208804288D
:101C10000AD12389A28861882846FFF794FFE188CA
:101C20002846FFF783FF17E0208808280AD1238978
:101C3000A28861882846FFF755FFE1882846FFF70C
:101C400048FF09E02389A28861882846FFF719FF29
:101C5000E1882846FFF708FF70BD00210180418020
:101C6000012181800021C180018170472DE9F0416F
:101C700005460C4600260127608808B9022600E0C8
:101C80000026A088012801D1022700E00127208832
:101C9000A0B92389A28861882846FFF78AFFE188D6
:101CA0002846FFF77DFF23893A4631462846FFF74D
:101CB0004AFFE1882846FFF739FF13E02389A2880D
:101CC00061882846FFF73FFFE1882846FFF72EFF8F
:101CD00023893A4631462846FFF76BFFE1882846BC
:101CE000FFF75EFFBDE8F0810146486B7047014693
:101CF000886B70470146C86B70470146086C704797
:101D00000A884B881A438B881A43CB881A430B895D
:101D10001A434B891A438B891A43A0F84420704711
:101D20000021018041808180C180018141818181C8
:101D3000704731B1B0F8442042F40042A0F844208A
:101D400005E0B0F84420C2F30E02A0F8442070472A
:101D500021B1828842F00402828004E082884FF63A
:101D6000FB731A408280704721B1828842F00102E1
:101D7000828004E082884FF6FE731A4082807047AA
:101D80001AB183890B43838102E083898B4383816A
:101D900070478182704702460020138A0B400BB1C6
:101DA000012000E000207047CA430282704730B52E
:101DB0000246002000230024158A05EA01039589C4
:101DC00005EA010413B10CB1012000E0002030BD90
:101DD000CA430282704741EA0203A0F848307047C4
:101DE0001AB183890B43838102E083898B4383810A
:101DF000704721B1828842F00802828004E0828824
:101E00004FF6F7731A408280704701894FF6F872D7
:101E10001140018170470A46002101894FF68F73F6
:101E2000194011430181704730B504460D462946DB
:101E30002046FFF7F0FF208940F00700208130BDE9
:101E40002DE9F04104460D4616461F46602D06D189
:101E50003B46012231462046FFF775FE05E03B4632
:101E6000012231462046FFF7A4FE29462046FFF70F
:101E7000D2FF208940F007002081BDE8F08130B515
:101E80000C4600210189C9B24FF6FF7505EA03250A
:101E9000154325432943018130BD2DE9F041054615
:101EA0000E4617469846002443463A463146284691
:101EB000FFF7E5FF2C894FF6F870044044F0070463
:101EC0004FF68F70044044F070042C81BDE8F0811F
:101ED000F0B504460D4616461F463B463246294697
:101EE0002046FFF7CCFF208940F480402081F0BDE0
:101EF00082884FF68F731A40828082880A438280DC
:101F0000704702894FF6F8731A40028102890A432A
:101F10000281704702894FF67F731A40028102895D
:101F20000A4302817047F0B50C4615461E46002153
:101F3000002200230189028B038C4FF6F877394089
:101F400021434FF6FC473A4040F201173A434FF61F
:101F5000DD773B404FF6FF7707EA06172F433B43F9
:101F6000018102830384F0BD21B1828842F08002A6
:101F7000828004E082884FF67F731A408280704727
:101F8000A0F850107047000010B50446FA4884428B
:101F900008D101211020FFF700F900211020FFF7E0
:101FA000FCF857E0F548844209D101214804FFF7C5
:101FB000E3F800214FF40030FFF7DEF84AE0F04884
:101FC000844209D101218804FFF7D6F800214FF49B
:101FD0008020FFF7D1F83DE0EA48844209D1012191
:101FE000C804FFF7C9F800214FF40020FFF7C4F838
:101FF00030E0E548844209D101210805FFF7BCF82B
:1020000000214FF48010FFF7B7F823E0DF48844247
:1020100008D101212020FFF7C0F800212020FFF780
:10202000BCF817E0DA48844209D101218807FFF79C
:10203000A3F800214FF08040FFF79EF80AE0D54852
:10204000844207D101214005FFF796F80021600581
:10205000FFF792F810BD2DE9FF4705460E46002414
:10206000A14600BFA046B08900B100BF2C8A24F46D
:102070004054F08804432C82AC8941F20C608443C4
:10208000B08831890843718908430443AC81AC8A24
:1020900024F44074B0890443AC826846FEF7FDFE28
:1020A000B548854202D0B948854202D1DDF80C908E
:1020B00001E0DDF80890A88900F4004040B109EB88
:1020C000C90000EB091031684900B0FBF1F707E0E7
:1020D00009EBC90000EB091031688900B0FBF1F78A
:1020E0006420B7FBF0F004012009642101FB1078A3
:1020F000A88900F4004040B1322000EBC800B0FBDA
:10210000F1F000F00700044308E0322000EB081073
:102110006421B0FBF1F000F00F0004432C81BDE816
:10212000FF874FF41651016000218180C180018139
:102130000C21418100218181704710B502460020A9
:10214000108A20F470600B884C8823438C882343CA
:10215000CC8823431843108210BD002101804180A8
:102160008180C180704721B1828942F4005282810E
:1021700004E082894DF6FF731A4082817047028B1A
:1021800002F47F420283028B0A430283704721B12B
:10219000828942F40042828103E08289C2F30E0206
:1021A0008281704721B1828A42F40062828204E017
:1021B000828A4FF2FF731A4082827047C1F308028D
:1021C0008280704701468888C0F308007047028A01
:1021D0004FF6F0731A400282028A0A430282704765
:1021E00021B1828942F00202828104E082894FF6A5
:1021F000FD731A408281704782894FF2FF731A4043
:10220000828182890A4382817047028A4FF6DF7396
:102210001A400282028A0A430282704721B1028A6E
:1022200042F48042028204E0028A4BF6FF731A40B5
:1022300002827047818941F001018181704721B19B
:10224000828A42F00802828204E0828A4FF6F773A3
:102250001A4082827047028BD2B20283028B42EA1A
:1022600001220283704721B1828A42F020028282D9
:1022700004E0828A4FF6DF731A408282704721B1F0
:10228000828A42F01002828204E0828A4FF6EF7363
:102290001A4082827047828A4FF6FB731A4082820C
:1022A000828A0A438282704721B1828A42F0020206
:1022B000828204E0828A4FF6FD731A408282704760
:1022C0001AB1838A0B43838202E0838A8B43838221
:1022D0007047F0B50346002400260025002040F694
:1022E0006A17B94200D100BF1846C1F3421401F089
:1022F0001F06012707FA06F5012C01D10C3004E076
:10230000022C01D1103000E014301AB107682F43BD
:10231000076002E00768AF430760F0BD0246002097
:10232000B1F5007F00D100BF13880B400BB1012035
:1023300000E00020704701F40072B2F5007F00D188
:1023400000BFCA430280704770B5024600240023D4
:102350000025002040F66A16B14200D100BFC1F34B
:10236000421501F01F03012606FA03F3012D13D1D4
:102370009689334017E000000010014000440040FF
:1023800000480040004C0040005000400014014054
:1023900000780040007C0040022D02D1168A3340B4
:1023A00001E0968A33400C12012606FA04F41688DE
:1023B000344013B10CB1012000E0002070BD10B515
:1023C0000022002340F66A14A14200D100BF0A1285
:1023D00001249440A3B2DC43048010BD10B5044630
:1023E0006FF00400FEF7B6F8E11704EB5171C1F38A
:1023F000C701394A11701046007800EB4001C1EB6B
:10240000C0104FF6FF7101EAC0003449088010BDCA
:102410000146314A12784A434FF0E0235A610022C4
:102420009A611A46126942F001021A6100BF4FF028
:10243000E022106900F001021AB100F48032002A93
:10244000F5D04FF0E022126922F001024FF0E023B4
:102450001A6100229A6170470146204A12884A4355
:102460004FF0E0235A6100229A611A46126942F045
:1024700001021A6100BF4FF0E022106900F0010272
:102480001AB100F48032002AF5D04FF0E022126930
:1024900022F001024FF0E0231A6100229A61704796
:1024A00070B504464FF4077094FBF0F0C6B24FF4D9
:1024B000077094FBF0F100FB114085B205E04FF48A
:1024C0000770FFF7C9FF701EC6B2002EF7D115B115
:1024D0002846FFF7C1FF70BD280000202A00002019
:1024E00000B587B04FF4A060FDF7E2FF0121084678
:1024F000FEF7A4FD01211020FEF7FAFD07220921B5
:102500003C48FEF788FB07220A213A48FEF783FB86
:1025100002208DF8180000208DF81A004FF4C060DA
:10252000059001208DF81B0002208DF8190005A9E7
:102530003048FEF7E5FA4FF4E13001900020ADF8A5
:1025400010000C20ADF80E000020ADF80C00ADF826
:102550000A00ADF8080001A92748FFF77CFD01211A
:102560002548FFF700FE40212348FFF7E4FE012243
:1025700040F225512048FFF7ACFE25208DF80000E1
:1025800001208DF8030003208DF801008DF8020072
:102590006846FDF792FF07B000BD10B5044621461E
:1025A0001548FFF70BFE00BF80211348FFF7B6FE6A
:1025B0000028F9D010BD70B50446002504E0605D28
:1025C000FFF7EBFF681CC5B2605D0028F7D100BFC4
:1025D00040210948FFF7A2FE0028F9D070BD00BFD6
:1025E000054A128802F04002002AF9D0C2B2024B1A
:1025F0009A807047000002400010014000B58DB085
:102600004FF4A060FDF754FF01210846FEF716FDC8
:1026100001210802FEF76CFD28200B9003208DF8A5
:10262000300000208DF833000BA93C48FEF768FA13
:1026300001210802FEF7B1FD00214FF48070FEF782
:10264000ACFD002007900A9009904FF4803008906C
:1026500007A8FDF7D7FF002001908DF808008DF83E
:1026600009000390059002208DF8180001A92C485C
:10267000FDF799FF01212A48FDF7DBFF0DB000BDF2
:1026800010B504460723012221462548FEF711F81C
:102690002348FEF76AF800BF02212148FEF786F9B9
:1026A0000028F9D01E48FEF79CF810BD2DE9F04136
:1026B00007460C460025002600BF08E03846FFF715
:1026C000DFFF05440520FFF7EBFE701CC6B2A642F3
:1026D000F4DBB5FBF4F080B2BDE8F08110B54FF447
:1026E000A060FDF7E5FE10BD10B5044607230122EA
:1026F00021460B48FDF7DDFF0948FEF736F800BF1D
:1027000002210748FEF752F90028F9D00448FEF7E5
:1027100068F810BD0246002070470000000002402B
:102720000020014030B50B46014600202022012444
:1027300009E021FA02F59D4205D303FA02F5491B8F
:1027400004FA02F52844151EA2F10102F1DC30BDA5
:10275000064C074D06E0E06840F0010394E80700EE
:1027600098471034AC42F6D3FDF712FD0829000853
:10277000282900080FB4054B10B503A9044A029894
:1027800000F018F810BC5DF814FB0000DF2500080D
:102790002C00002002E008C8121F08C1002AFAD14C
:1027A00070477047002001E001C1121F002AFBD1D1
:1027B000704700002DE9FF4F89B09B460446002575
:1027C00006E025280BD05A460B999047641C6D1CD7
:1027D00020780028F5D10DB02846BDE8F08F0027FD
:1027E000B8460122474900E0074314F8013F203B67
:1027F00002FA03F00842F7D120782E2819D114F8F4
:10280000010F47F004072A280ED06FF02F0220781E
:10281000A0F1300109290CD808EB880102EB410135
:1028200000EB0108641CF2E70A98641C50F8048B62
:102830000A9020780028CED0642808D0692806D0D5
:1028400075281ED05A460B9990476D1C58E00A997E
:102850004FF00A0901C90A91002802DA40422D21ED
:1028600002E0390504D52B218DF82010012103E069
:10287000F90704D02021F7E78A4608AE0DE00021D1
:10288000FAE70A994FF00A0901C90A91F7E74946A0
:10289000FFF748FF303106F8011D0028F7D1ADEBF6
:1028A000060000F12009780701D44FF00108C8455F
:1028B00002DDA8EB090000E000208046002706E0CA
:1028C00008A85A46C05D0B9990476D1C7F1C574560
:1028D000F6DB04E030205A460B9990476D1CB8F1A6
:1028E0000001A8F10108F5DC05E016F8010B5A46D5
:1028F0000B9990476D1CB9F10001A9F10109F4DCB5
:10290000641C65E709280100282900080000002050
:1029100030000000942700085829000830000020EB
:1029200000040000A427000800000000007A030A49
:10293000000000000000000001020304060708096F
:102940000000000001020304010203040607080955
:0829500000000000000000007F
:040000050800018965
:00000001FF
